:020000040000FA
:200000000C942E020C94F4230C9407240C9457020C9457020C9457020C9457020C944806BC
:200020000C9457020C9457020C9457020C9457020C9457020C9457020C9457020C945702F8
:200040000C943F260C947B030C9425030C94E7020C9457020C94DC250C9457020C945702A0
:200060000C9457020C9457020000891112239B322446AD573665BF74488CC19D5AAFD3BEEA
:200080006CCAE5DB7EE9F7F88110080193331A22A5562C47B7753E64C99C408DDBBF52AE70
:2000A000EDDA64CBFFF976E802218B30100299132667AF763444BD554AADC3BC588ED19F50
:2000C0006EEBE7FA7CC8F5D983310A2091121803A7772E66B5543C45CBBD42ACD99E508F30
:2000E000EFFB66EAFDD874C904428D5316619F702004A9153227BB364CCEC5DF5EEDD7FC00
:200100006888E1997AABF3BA85520C4397711E60A1142805B3373A26CDDE44CFDFFD56ECEF
:20012000E9986089FBBB72AA06638F7214409D512225AB343006B9174EEFC7FE5CCCD5DDCF
:200140006AA9E3B8788AF19B87730E6295501C41A3352A24B1163807CFFF46EEDDDC54CDAF
:20016000EBB962A8F99A708B088481951AA793B62CC2A5D33EE1B7F04008C919522BDB3AAF
:20018000644EED5F766DFF7C899400859BB712A6ADD224C3BFF136E0C1184809D33B5A2A6F
:2001A000E55E6C4FF77D7E6C0AA583B4188691972EE3A7F23CC0B5D14229CB38500AD91B4F
:2001C000666FEF7E744CFD5D8BB502A499961087AFF326E2BDD034C1C3394A28D11A580B2F
:2001E000E77F6E6EF55C7C4D0CC685D71EE597F42880A1913AA3B3B2444ACD5B5669DF78FF
:20020000600CE91D722FFB3E8DD604C79FF516E4A9902081BBB332A2C55A4C4BD7795E68EE
:20022000E11C680DF33F7A2E0EE787F61CC495D52AA1A3B03882B193466BCF7A5448DD59CE
:20024000622DEB3C700EF91F8FF706E69DD414C5ABB122A0B9923083C77B4E6AD5585C49AE
:20026000E33D6A2CF11E780F000103040607090A0C0E0F1112141517181A1B1D1E20222391
:20028000252627292A2C2D2F303233353637393A3C3D3E40414244454648494A4B4D4E4F0E
:2002A00050525354555657595A5B5C5D5E5F606162636465666768696A6A6B6C6D6E6E6F1F
:2002C000707171727373747575767677787879797A7A7A7B7B7C7C7C7D7D7D7D7E7E7E7E0D
:2002E0007E7F7F7F7F7F7F7F41542B554152543D33383430302C302C300D0A0041542B4EF2
:20030000414D453D0041542B4E414D453F0D0A0041542B504F4C41523D312C300D0A004136
:20032000542B52455345540D0A0041540D0A004F4B000D0A004D6F62696C696E6B6420543A
:200340004E4332003D3D205374617274696E672E0D0A003D3D2055534220706F77657220BE
:2003600064657465637465640D0A003D3D2056657273696F6E20000D0A3D3D204265525486
:200380004F53204156522F4D6F62696C696E6B6420544E43320D0A000D0A003D3D200029C2
:2003A000322E300028322E302E312E35383500556E6B6E6F776E206572726F7200556E6B5E
:2003C0006E6F776E206572726F720053657269616C20627566666572206F76657272756EE6
:2003E0000053657269616C20726563656976652074696D656F7574005258207061636B65A5
:20040000742061626F7274005061636B657420435243206572726F72005258206275666629
:200420006572206F766572666C6F77005744542074696D6564206F7574004146534B204131
:20044000444320627566666572206F766572666C6F77004E6F206572726F720011241FBECE
:20046000CFEFD8E0DEBFCDBF84B780936B0614BE88E10FB6F89480936000109260000FBE50
:2004800011E0A0E0B1E0E0E6F3E502C005900D92A639B107D9F716E0A6E9B1E001C01D92D9
:2004A000AB36B107E1F70E94C11F0C94AE290C9400001092C00088E98093C100089510924C
:2004C000C1000895FC012285211105C021E0228788EB8093C10008959A01AB01DA01C901A9
:2004E000B695A79597958795BC01CD01605C7D4B804F9F4F0E94A228215031093093C500C2
:200500002093C4000895E2ECF0E0808194E0660F771F9A95E1F78F7C682B608308958FB73E
:20052000F89494B1986294B98FBF8FB7F894229A8FBF8FB7F89424988FBF80ED8CBD8CB5A6
:2005400081608CBD8DB58E7F8DBD08951CBC8FB7F89494B1937C94B98FBF089508950895CB
:20056000FC01828508952FB7F894DC011A963C911A97311120C0E0913306F0913406628DE7
:20058000738D448D558D64177507A9F031E01A963C93A28DB38D80A191A1A817B90719F43A
:2005A000868D978D04C0A28DB38DCD010196938F828F8C918EBD2FBF08952BE0AC01249FCB
:2005C000C001259F900D11248C5F9E4F08951F920F920FB60F9211242F933F938F939F937A
:2005E000AF93BF93EF93FF93E0913106F0913206228D338D848D958D2817390731F488E93B
:200600008093C10010920E0113C0A28DB38D80A191A1A817B90719F4868D978D04C0A28D0A
:20062000B38DCD010196938F828F8C918093C600FF91EF91BF91AF919F918F913F912F916C
:200640000F900FBE0F901F9018951F920F920FB60F9211242F933F934F935F938F939F938A
:20066000AF93BF93EF93FF938091C000E0913106F091320696A58871892B86A72091C60014
:2006800042A153A186A197A14817590739F444A155A180A591A54817590741F044A155A137
:2006A00082A193A101974817590721F486A5816086A712C0A4A1B5A12C9324A135A180A552
:2006C00091A52817390719F486A197A103C084A195A1019695A384A3FF91EF91BF91AF9145
:2006E0009F918F915F914F913F912F910F900FBE0F901F9018951F920F920FB60F921124F6
:200700002F933F938F939F93AF93BF93EF93FF93E0913306F091340622A133A186A197A1EE
:200720002817390739F424A135A180A591A528173907D9F024A135A182A193A10197281706
:20074000390799F08EB5A4A1B5A18C9324A135A180A591A52817390719F486A197A103C02F
:2007600084A195A1019695A384A3E0913306F0913406228D338D848D958D2817390799F019
:20078000A28DB38D80A191A1A817B90719F4868D978D04C0A28DB38DCD010196938F828F09
:2007A0008C918EBD02C010921901FF91EF91BF91AF919F918F913F912F910F900FBE0F90C8
:2007C0001F9018958FB7F89493E097BBA0EBB0E01C92E1EBF0E0108292E09C939081946089
:2007E00090831092B20099EF9093B300E0E7F0E090819E7F90839081926090838FBF08955B
:20080000FC0186A590E00895FC0116A60895CF93DF93EC012A8D3B8D8C8D9D8D281739074B
:2008200009F0F8CF8FA598A9DC01ED91FC910284F385E02D09958111F4CF80E090E0DF915D
:20084000CF910895CF93DF93EC01FB016FB7F894228D338D868D978D2817390739F4248D29
:20086000358D80A191A12817390771F0248D358D828D938D019751E040E02817390709F080
:2008800050E0252F342F02C021E030E06FBF232B79F48FB7F894A48DB58DCC93448D558D5E
:2008A00020A131A14217530731F5268D378D27C04FB7F894228D338D868D978D28173907B7
:2008C00039F4248D358D80A191A12817390779F0648D758D228D338D2150310991E080E05F
:2008E0006217730709F090E0292F382F02C021E030E04FBFCCCF248D358D2F5F3F4F358F0E
:20090000248F8FBF87A590A9DC01ED91FC910084F185E02D0995CE019927DF91CF910895E8
:20092000CF92DF92EF92FF920F931F93CF93DF936C017A018B01C0E0D0E0CE15DF0579F0B7
:20094000F80181918F01B601992787FD90950E942204019611F47E0102C02196EECFC701FB
:20096000DF91CF911F910F91FF90EF90DF90CF9008950F931F93FC018FB7F89442A153A1E4
:2009800024A135A18FBF4217530729F086A5897B09F444C031C082A593A5A4A5B5A5892BCB
:2009A0008A2B8B2B49F18FB7F894409135065091360660913706709138068FBF2FB7F8946A
:2009C0008091350690913606A0913706B09138062FBF841B950BA60BB70B02A513A524A5B9
:2009E00035A580179107A207B3074CF08FB7F89496A5906296A78FBF8FEF9FEF25C08FB78E
:200A0000F894A2A1B3A124A135A18FBFA217B30709F0BCCF86A5897B89F2B8CF9FB7F894C0
:200A2000A2A1B3A120A531A5A217B30719F426A137A105C0A2A1B3A19D012F5F3F4F33A379
:200A400022A38C919FBF90E01F910F910895CF92DF92EF92FF920F931F93CF93DF936C0180
:200A60007A018B01C0E0D0E0CE15DF0571F0C6010E94B9048F3F2FEF920711F47E0105C003
:200A80002196F80181938F01EFCFC701DF91CF911F910F91FF90EF90DF90CF900895DC0106
:200AA0009F968D919C91D097DC01ED91FC910480F581E02D0994CF93DF93EC01CB01FB013A
:200AC000EE0FFF1FEF5CF94FD183C083798F688F0E94DD02DC0198AB8FA716968D919C9104
:200AE000179712962D913C9113973F8F2E8F3D8F2C8F3B8F2A8F0197820F931F99A388A394
:200B000018968D919C91199714962D913C9115973FA32EA33DA32CA33BA32AA30197820F15
:200B2000931F99A788A7ED91FC9111970190F081E02DBE01CD0109951AA61BA61CA61DA6A1
:200B400040E056E960E070E0CE010E944F051EA6CE01DF91CF910895FC019FB7F89424A13D
:200B600035A133A322A39FBF0895FC019FB7F894248D358D338F228F9FBF0895CF93DF9375
:200B8000EC010E94AC05CE01DF91CF910C94B505CF93DF93EC010E9407048FA598A9DC015C
:200BA000ED91FC910280F381E02D0995CE010E94BE0580E090E0DF91CF910895CF93DF9344
:200BC000EC010E94C805688D798DCE010E945B05CE01DF91CF910895FC0181E3DF011D92C1
:200BE0008A95E9F78EED95E09583848388EC95E09783868387E295E09183808380E994E009
:200C00009383828387E094E09387828780E094E09587848784E094E097878687CF010C944D
:200C20005B058F929F92AF92BF92CF92DF92EF92FF920F931F932FB7F894C0903506D090DB
:200C40003606E0903706F09038062FBF2FB7F8948090350690903606A0903706B0903806FB
:200C60002FBF950184010C191D092E093F0906171707280739070CF4E9CF1F910F91FF9060
:200C8000EF90DF90CF90BF90AF909F908F9008951F920F920FB60F921124CF92DF92EF924E
:200CA000FF922F933F934F935F936F937F938F939F93AF93BF93EF93FF93809135069091BE
:200CC0003606A0913706B09138060196A11DB11D8093350690933606A0933706B09338062A
:200CE000A091A202B091A3022D913C9111972115310571F18FB7F89440913506509136063D
:200D000060913706709138068FBF1896CD90DD90ED90FC901B974C195D096E097F0977FDA7
:200D200017C01296ED91FC91139731832083ED91FC91119712968D919C91139793838283BD
:200D40001C96ED91FC911D97CD010C960995C8CFFF91EF91BF91AF919F918F917F916F917D
:200D60005F914F913F912F91FF90EF90DF90CF900F900FBE0F901F901895E2EAF2E086EAC2
:200D800092E0918380831382128215821482F783E683109235061092360610923706109255
:200DA00038060C94E2030F931F93CF93DF931F92CDB7DEB78C01CB010983DB011296ED9197
:200DC000FC91139741E050E0BE016F5F7F4F0995019719F4C801992702C08FEF9FEF0F90F7
:200DE000DF91CF911F910F910895CF93DF931F92CDB7DEB7DC01ED91FC9141E050E0BE01A0
:200E00006F5F7F4F0995019719F4898190E002C08FEF9FEF0F90DF91CF910895CF93DF93CB
:200E2000CDB7DEB79E01275F3F4F4D815E8163ED76E08F8198850E942007DF91CF91089530
:200E40002F923F924F925F926F927F928F929F92AF92BF92CF92DF92EF92FF920F931F9300
:200E6000CF93DF93CDB7DEB7C45AD1090FB6F894DEBF0FBECDBFFC01CA56DF4F7983688314
:200E8000C659D040C856DF4F59834883C859D0405901C057DF4F19821882C059D0409E0163
:200EA0002A573F4FC957DF4F39832883C758D0409F012F5F3F4FC456DF4F39832883CC59AF
:200EC000D0408081853291F1882309F454C7C856DF4F68817981C859D040CA56DF4FE881EE
:200EE000F981C659D0400995C057DF4F88809980C059D040FFEF8F1A9F0AC557DF4FB98257
:200F0000A882CB58D040C057DF4F99828882C059D040C557DF4FA880B980CB58D040C456E9
:200F2000DF4FE881F981CC59D040C2CF8181853251F4AF014E5F5F4FC456DF4F59834883E2
:200F4000CC59D040C4CFC456DF4FA881B981CC59D040C256DF4F1882CE59D040CE56DF4F80
:200F60001882C259D040C157DF4F1882CF58D040C357DF4F1882CD58D040FD018D918B32A5
:200F800009F44FC060F48032B9F0833209F057C031E0CE56DF4F3883C259D040EECF8D320C
:200FA00009F446C0803309F04AC041E0C256DF4F4883CE59D040E1CF1C7FC357DF4F3881C3
:200FC000CD58D040132BCD56DF4F4881C359D04040FB12F9C157DF4F5881CF58D04050FB71
:200FE00013F9C257DF4F8881CE58D04080FB14F9CC56DF4F9881C459D04090FB15F9CE5684
:20100000DF4FE881C259D040E0FB16F9CB56DF4FF881C559D040F0FB17F9812F837009F097
:20102000ACCF21E0C357DF4F2883CD58D040A5CF51E0C157DF4F5883CF58D0409ECFCE567E
:20104000DF4F9881C259D040C056DF4F9883C05AD0408A3229F0DF01C12CD12C9AE013C0A9
:20106000C5010296D501CD90DC90D7FE09C0D194C194D108B1E0C157DF4FB883CF58D040F9
:2010800031965C0112C0FD018D9120ED280F2A3060F49C9D90019D9D300D11246901E0E3A9
:2010A000CE1AD108C80ED11CEECFC157DF4F2881CF58D040222329F0C256DF4F1882CE5964
:2010C000D04080818E3221F581818A3231F0DF011196212C312C3AE009C0D5012D903C90D7
:2010E000329695012E5F3F4F590115C0FD012D9180ED820F8A3078F4329DC001339D900D6B
:2011000011241C0140E3241A3108220E311CEECF22242A94322CDF018D918836D9F018F4B6
:201120008C3459F01FC08C3641F08A37D9F4C257DF4F1882CE58D04006C051E0C257DF4FF1
:201140005883CE58D040FD01CC56DF4F1882C459D04012C0FD0181E0CC56DF4F8883C459C0
:20116000D04005C0CC56DF4F1882C459D040C257DF4F1882CE58D040DF011196C456DF4F9D
:20118000B983A883CC59D0400081053609F4F5C10CF5033509F44BC0ACF4053409F4EDC17F
:2011A000073409F4E2C101119CC4C557DF4FB982A882CB58D040C456DF4FF983E883CC59AC
:2011C000D04095C40336F9F00CF0B9C0083509F47DC087C4003709F462C044F4073609F485
:2011E000C4C17CF0093609F4AAC07BC4053709F46DC0083709F465C0033709F072C400E009
:2012000017C000E0BAC1F5013296C557DF4FF983E883CB58D040D5018C91898300E0FE019C
:2012200032967F019E012F5F3F4F59017DC401E0A5014E5F5F4FC557DF4F59834883CB581A
:20124000D040D501AD90BC90A114B10421F44EE1A42E41E0B42E37FE04C030E1232E37E228
:20126000332E2A0C3B1C75010023A1F0F7018491882309F459C4E214F30409F455C4BFEFD3
:20128000EB1AFB0AF3CFE214F30409F44DC4FFEFEF1AFF0AD7018C918111F5CF45C4F5013D
:2012A0003296C557DF4FF983E883CB58D040D5016D917C9180E090E02FE3E22E21E0F22E0E
:2012C0002BC0BFE4EB2EB1E0FB2E04C0AFE3EA2EA1E0FA2EC257DF4FB881CE58D040BB2302
:2012E00071F0F5013496C557DF4FF983E883CB58D040D5016D917D918D919C910DC0C501A9
:201300000296F50160817181C557DF4F99838883CB58D04080E090E021E0CD56DF4F2883FB
:20132000C359D040053729F4CD56DF4F1882C359D040C357DF4F1882CD58D04043C0C257DE
:20134000DF4F3881CE58D040332379F0A5014C5F5F4FC557DF4F59834883CB58D040D501B8
:201360006D917D918D919C910FC0F5013296C557DF4FF983E883CB58D040D5016D917C9144
:20138000882777FD8095982F97FF13C090958095709561957F4F8F4F9F4FCD56DF4F18822B
:2013A000C359D040B2E0C357DF4FB883CD58D04005C0CD56DF4F1882C359D040FFE3EF2EDC
:2013C000F1E0FF2EE1E0CB56DF4FE883C559D040611571058105910529F4CB56DF4F188258
:2013E000C559D0402114310441F4CB56DF4FF881C559D040FF2309F47FC0CD56DF4F2881D2
:20140000C359D0402130C9F0AE014A575F4F5A012AE030E040E050E00E94A228F701E60F7A
:20142000F71F8081D5018E935D01B901CA01611571058105910561F719C0FE01EA57FF4FF4
:201440005F01FB01EF70FF27EE0DFF1D2081D5012E935D01E4E09695879577956795EA956C
:20146000D1F7611571058105910559F737FE48C0C256DF4FB881CE59D040BB2309F440C07E
:201480001C7FC357DF4FE881CD58D0401E2BCD56DF4FF881C359D040F0FB12F9C157DF4F50
:2014A0002881CF58D04020FB13F9C257DF4F3881CE58D04030FB14F9CC56DF4F4881C45981
:2014C000D04040FB15F9CE56DF4F5881C259D04050FB16F9CB56DF4F8881C559D04080FB02
:2014E00017F9212F237081E090E011F480E090E01601281A390A04C0DE01AA57BF4F5D01A7
:20150000C957DF4F88819981C758D0408A199B0920E3F5018215930524F422935F010196F8
:20152000F8CFCE56DF4F2881C259D040222309F4E8C2CB56DF4F3881C559D040332309F449
:20154000E6C2802F8F7D883509F0E7C2D50111970C9342E0A41AB108F50180E3808300E0D7
:20156000CE018A579F4F7C01DFC20250EE24E394F12C2114310449F002C0E12CF12C37FEF3
:2015800007C046E0242E312C03C022242394312CD5011496C557DF4FB983A883CB58D0402E
:2015A000F501408051806280738020E030E0A901C301B2010E94CD2687FF0AC077FA709444
:2015C00077F87094F2E0C357DF4FF883CD58D040AA24A394B12CAC0EBD1EAC0CBD1C20E0C6
:2015E00030E040E85FE3C301B2010E941C2887FD32C0812C912C27EB33E44AEB51E5C301DC
:20160000B2010E941C2887FD0EC029EF32E045E150E5C301B2010E94D1262B013C012AE0D7
:20162000820E911CE8CF20E030E040E251E4C301B2010E941C2887FD49C020E030E040E233
:2016400051E4C301B2010E94D1262B013C013FEF831A930AE8CF20E030E0A901C301B2018C
:201660000E94CD26812C912C882381F12FEF36EE4BED5EE2C301B2010E94CD26181674F0F6
:2016800029EF32E045E150E5C301B2010E9420282B013C014AE0841A9108E8CF20E030E0D3
:2016A00040E85FE3C301B2010E94CD2687FF0EC020E030E040E251E4C301B2010E94202898
:2016C0002B013C0151E0851A9108E8CFEF2809F18214930444F48CEF88168FEF98061CF0CA
:2016E0002818390800E091E0291A310881E0CE56DF4FA881C259D040A827C156DF4FA88356
:20170000CF59D040B1E0CE56DF4FB883C259D04005C0C156DF4F1882CF59D04001114AC050
:2017200097FE3CC080E3E1E0F0E0EC0FFD1FEC0DFD1D80832114310461F4CE56DF4FE8817D
:20174000C259D040E11105C0F501319680E090E007C0F50132968EE2D50111968C93C101C7
:2017600020E030E040E37F01215031092815390529F0009719F041930197F5CF209430942F
:20178000821493040CF4EFC21C01E1E0F0E0C656DF4FF983E883CA59D04013C022273327E3
:2017A00028193909C656DF4F39832883CA59D040750107C07501C656DF4F19821882CA596D
:2017C000D040C757DF4FF982E882C958D0402EE2F22EC656DF4FE881F981CA59D0402E16C3
:2017E0003F060CF474C0C301B2010E943927CF55DF4F688379838A839B83C15AD040CF5544
:20180000DF4F48815981C15AD040BA01882777FD8095982F0E946C279B01AC01C301B2011D
:201820000E94682620E030E040E251E40E9420282B013C01C757DF4F28813981C958D040DE
:201840002F5F3F4FCF55DF4F8881C15AD040805DC757DF4FA881B981C958D0408C93C656EE
:20186000DF4F88819981CA59D0400196C656DF4FE881F981CA59D040EF2BE1F42114310494
:2018800039F4CE56DF4FF881C259D040FF2381F0C757DF4F28813981C958D0402E5F3F4F97
:2018A000C757DF4FA881B981C958D0401196FC9281E090E0C656DF4F99838883CA59D0409E
:2018C000C757DF4F39832883C958D04082CFC757DF4FE880F980C958D04020E030E040EA3B
:2018E00050E4C301B2010E941C2887FD53C0F70181E090E030E322912E3251F0820F8A3342
:2019000021F0808380E090E003C0308381E090E0AE16BF0680F3892BE9F10023E1F0C75700
:20192000DF4FE881F981C958D040AE16BF0678F4DF018E919D018E3239F4CF010297DC01A0
:201940008C918083F90101C080833197EECFBFEF8B1A9B0A17C0C757DF4FE880F980C95807
:20196000D040EFEFEE1AFE0AD701C757DF4FE881F981C958D0403296AA16BB0618F48E91BD
:201980008293FACF81E3E1E0F0E0EC0FFD1FEC0DFD1D8083C156DF4FF881CF59D040FF232F
:2019A00069F0F7012E2F9F2F82918033D9F3E22EF92E8E3219F421E0E21AF108002309F4FF
:2019C00042C0D7010C93C701029697FE07C02DE211962C9391948194910803C02BE2F701C2
:2019E00021837C01FAE0EF0EF11C20E030E02F5F3F4FF7013196C4016AE070E00E948E2840
:201A0000805DD7018C934B01672B11F07F01EFCF22303105DCF3A7014950510980E090E013
:201A2000DC01A21BB30BAE0FBF1F6C91DA016E93AD010196B901681B790B1616170684F314
:201A4000B9E0EB1AF108C256DF4FE881CE59D040EE2309F468C01C7FC357DF4FF881CD5852
:201A6000D0401F2BCD56DF4F2881C359D04020FB12F9C157DF4F3881CF58D04030FB13F953
:201A8000C257DF4F4881CE58D04040FB14F9CC56DF4F5881C459D04050FB15F9C056DF4FC5
:201AA0008881C05AD04080FB16F9CB56DF4F9881C559D04090FB17F9212F237081E090E084
:201AC00011F480E090E09601281B390B40E3C7018A199B098217930734F5D5014E935D0170
:201AE000F6CFC557DF4FB982A882CB58D04000E08DE1E82E81E0F82E9AE1A92E91E0B92EAA
:201B000013C000E0FE01EA57FF4F7F010DC000E09E012A573F4F790107C000E0AE014A5738
:201B20005F4F7A0101C000E0EA18FB08CE14DF04ECF11C7FC357DF4F5881CD58D040152B03
:201B4000CD56DF4F8881C359D04080FB12F9C157DF4F9881CF58D04090FB13F9C257DF4F05
:201B6000A881CE58D040A0FB14F9CC56DF4FB881C459D040B0FB15F9C056DF4FE881C05A28
:201B8000D040E0FB16F9CB56DF4FF881C559D040F0FB17F9CE18DF08212F237081E090E0D9
:201BA00011F480E090E0C81AD90A02C0C12CD12CC157DF4F2881CF58D040211122C031E094
:201BC000C31AD108D7FC1DC0C856DF4F68817981C859D04080E2CA56DF4FE881F981C6598D
:201BE000D0400995C057DF4F28813981C059D0402F5F3F4FC057DF4F39832883C059D04075
:201C0000DECF1C7FC357DF4F4881CD58D040142BCD56DF4F5881C359D04050FB12F9C15733
:201C2000DF4F8881CF58D04080FB13F9C257DF4F9881CE58D04090FB14F9CC56DF4FA88108
:201C4000C459D040A0FB15F9C056DF4FB881C05AD040B0FB16F9CB56DF4FE881C559D04067
:201C6000E0FB17F9812F837001F1813011F08DE201C08BE2C856DF4F68817981C859D04035
:201C8000CA56DF4FE881F981C659D0400995C057DF4F28813981C059D0402F5F3F4FC05742
:201CA000DF4F39832883C059D040C057DF4F48805980C059D0404A185B0835010023D9F070
:201CC0004201860C971C21E0E21AF108F7FC2CC0F3018491C856DF4F68817981C859D0403E
:201CE000CA56DF4FE881F981C659D0400995FFEF6F1A7F0AE5CF4201860C971CF1E0EF1AD0
:201D0000F108F7FC11C0C856DF4F68817981C859D040D3018D913D01CA56DF4FE881F98145
:201D2000C659D0400995E7CFC157DF4F2881CF58D040222309F4E7C821E0C21AD108D7FC80
:201D4000E2C8C856DF4F68817981C859D04080E2CA56DF4FE881F981C659D0400995FFEF2B
:201D60008F1A9F0AE9CFC156DF4F3881CF59D040311117CE68CEC057DF4F88819981C05945
:201D8000D040CC55DF4F0FB6F894DEBF0FBECDBFDF91CF911F910F91FF90EF90DF90CF90A1
:201DA000BF90AF909F908F907F906F905F904F903F902F900895FC019FB7F894EC55FF4FD2
:201DC000208131819FBFC9010895FC019FB7F894EC55FF4F118210829FBF0895EF92FF924B
:201DE0000F931F93CF93DF93EC01CC55DF4F2881398124FD9CC0FC01DC01A054BF4F8C91A6
:201E0000811109C0BF01605C7F4FCF018D549F4F0E9498138AC08F0105561F4FD8012D91F7
:201E20003C91CF0187569F4FDC012D933C9383A194A141A552A58417950719F447A150A577
:201E400005C083A194A1AC014F5F5F4F54A343A3DC018C918602C001112495958795959596
:201E60008795D8018D939C937F01BFE9EB0EF11CD7014D915C918F0103561F4FD8014D933D
:201E80005C9355954795240F351F280F391FD7012D933C93AF014F555F4F91E0121613065C
:201EA0000CF090E0DA018C91880F892B8C9385A196A1DC016C9325A136A181A592A52817E2
:201EC000390719F487A190A503C085A196A1019696A385A3DA019C91892F86958927DF01D5
:201EE000AE55BF4F80FF07C08C91803214F48F5F01C081508C938C91885F803414F48C9336
:201F000016C08F738C9397708BEF890F61E0833018F0933009F060E0AF01405C5F4F6170EE
:201F2000CF018D549F4F0E94A81399838883DF91CF911F910F91FF90EF9008952F923F9221
:201F40004F925F926F927F928F929F92AF92BF92CF92DF92EF92FF920F931F93CF93DF93AD
:201F6000EC012C0180E5480E511C7E0190E7E90EF11C6E01E1ECCE0ED11C5E01F5ECAF0E23
:201F8000B11C4E0186EC880E911CFE01E054FF4F3F01222423948FB7F89448A959A92AA91A
:201FA0003BA98FBF4217530709F45AC08FB7F894E8A9F9A92EA93FA9E217F30719F42CA98C
:201FC0003DA905C0E8A9F9A99F012F5F3F4F39AB28AB30808FBFF20100E010E080E82FE771
:201FE000919192170CF4292F89170CF4892F090F111D97FD1A95EE15FF0591F7821BF601BA
:202000008083F7018081FE01E80FF11DE05BFF4F6081CE010E94EE0E85E0159507958A951F
:20202000E1F7402F632DC5010E942C23F4018081F301882311F0208201C01082F70190817E
:2020400081E0890F8083FE01E90FF11DE05BFF4F301A3082803209F09ECFF701108299CFF0
:20206000DF91CF911F910F91FF90EF90DF90CF90BF90AF909F908F907F906F905F904F90AC
:202080003F902F9008954F925F926F927F92AF92BF92CF92DF92EF92FF920F931F93CF9305
:2020A000DF935C017B016A010E949E0F8701CE0CDF1CE501C05CDF4F0C151D0591F4C801FD
:2020C0008E199F09DF91CF911F910F91FF90EF90DF90CF90BF90AF907F906F905F904F904B
:2020E00008959FB7F894488159812A813B819FBF4217530721F38FB7F89440903506509075
:20210000360660903706709038068FBF8FB7F894488159812A813B818FBF42175307C1F438
:20212000C5010E949E0F2FB7F8948091350690913606A0913706B09138062FBF8419950959
:20214000A609B709181619061A061B06FCF6B7CF9FB7F894E881F9812E813F81E217F307E3
:2021600019F42C813D8105C0E881F9819F012F5F3F4F3983288380819FBFF80181938F0120
:202180009BCFEF92FF920F931F93CF93DF93EC01CF57DF4F7C0121E7E20EF11C8C010A55EC
:2021A0001F4F4FB7F894288139818C819D812817390739F42A813B818E819F8128173907D0
:2021C00071F06A817B8188819981019731E020E06817790709F030E0832F922F02C081E04D
:2021E00090E04FBF892BE1F4B701C8010E943D148F3FB1F02FB7F894EA81FB8180834A81CE
:202200005B818E819F814817590719F48C819D8103C08A819B8101969B838A832FBFC1CF92
:20222000DF91CF911F910F91FF90EF9008950F931F93CF93DF93EC018C010D551F4FF80168
:202240008081882321F0CE010E94C110F8CF80E090E0DF91CF911F910F9108953F924F9279
:202260005F926F927F928F929F92AF92BF92CF92DF92EF92FF920F931F93CF93DF93EC017E
:202280008A013B016B01C40ED51E2C0181E7480E511CAA24A394B12C7E01A3EAEA0EF11CFB
:2022A0009AE0892E912C332433946C147D0409F470C04FB7F894F2012081318184819581F1
:2022C0002817390739F422813381868197812817390789F0D20112962D913C9113978D9116
:2022E0009C91019761E050E02817390709F060E0862F952F02C081E090E04FBF892B21F011
:20230000CE010E94C110D5CFF30181913F014FB7F894D2011296ED91FC9113978083129624
:202320002D913C91139716968D919C9117972817390749F414968D919C91159713969C938E
:202340008E93129706C0F201828193810196938382834FBFCE010E94C110D7018C9181115A
:20236000A4CF9AA289A218A21F8E3C9225B1C5010C8C02C0880F991F0A94E2F7822B85B9A7
:2023800030926A0680917A00877180937A0035BC8CCFC801DF91CF911F910F91FF90EF90B8
:2023A000DF90CF90BF90AF909F908F907F906F905F904F903F900895CF93DF93DC015D9687
:2023C0008C915D97811165C0FD01EC55FF4F2081318124FD1BC0B397408151812281338125
:2023E0004217530729F1C081D18126813781C217D30719F42481358105C0C081D1819E010C
:202400002F5F3F4F31832083988115C0208131812031310579F02131310511F491E00BC04F
:20242000FD01EF55FF4F208191E09227908303C09FEF01C090E05E969C935E9724E35D969A
:202440002C935D979F3F29F09130E9F48AE090E01CC095B121E030E05C960C905C9702C0E4
:20246000220F331F0A94E2F72095292325B910926A0615BC90917A00986E90937A00AD5560
:20248000BF4F1C923EC082E190E092969C938E9391979196ED91FC9192975F968D919C9174
:2024A00090978E0F9F1F9C01317090963C932E935F975D964C915D9741505D964C935D9795
:2024C000AD53BF4F4C91220F232F221F330B31958F77992720FF06C0E7EEF2E0E81BF90BF0
:2024E000E49105C0FC01E859FD4FE4910000E49FF001112421FF03C08FE78F1B02C080E8CD
:202500008F0FDF91CF9108959B0135952795620F8A559F4F0C9414159B0135952795620FF4
:202520008A559F4F0C9417151F93CF93DF93EC011FB7F894772767FD7095FC01EC55FF4F9A
:2025400071836083339710820E94C110FE01ED55FF4F8081811118C01D8E18A21F8E21E0C8
:20256000208335B181E090E00C8C02C0880F991F0A94E2F7832B85B920936A0680917A0047
:20258000877180937A0025BD1FBFDF91CF911F910895FC01EC55FF4F1182108233971082CC
:2025A00008950F931F93CF93DF93EC01CB012FECDE011D922A95E9F7798F688F5B8F4A8F93
:2025C0009E01255D3F4F38A72FA33EA32DA33CA32BA32C5F3F4F3AA729A7275E3F4FFE0161
:2025E000E05CFF4F358324833383228331832083295F3F4F37832683275131093DAB2CAB56
:202600003BAB2AAB39AB28AB295F3F4F3FAB2EAB709610A220E2DF011D922A95E9F724E083
:2026200030E0EDA1FEA110826DA17EA149A55AA56417750719F44FA158A504C04DA15EA10F
:202640004F5F5F4F5EA34DA32150310951F79E0127583F4FFE01EF58FF4F358324833383E5
:20266000228331832083295F3F4F37832683275F3F4F7096358324833383228331832083BA
:20268000215F3F4F37832683BE010E94B02583E884BD81E085BD80936E00569ACE018D5423
:2026A0009F4F0E941A158E010A551F4FC8010E941A156DE2C8010E94141568E0C8010E94CF
:2026C00017158EE291E19B838A8383E490E19983888387E191E19B878A878BED9EE09D879B
:2026E0008C8785EE9EE09F878E878AE090E09AA389A3CE018B539F4FDF91CF911F910F919D
:202700000C941F23FC0184B121E030E0048C02C0220F331F0A94E2F72095282324B96111F9
:2027200003C0229A82E002C0219A81E0848F0895FC0181E083871582DB0112968D919C915C
:20274000139711969C938E93108283E090E00895FC01DA01868190E086278170992721E028
:202760008227817066839081882329F0983058F59F5F908328C0973068F081E083871582D2
:2027800012968D919C91139711969C938E93108283E071C01082963099F48385833049F0A6
:2027A00012968D919C91139711969C938E9380E001C084E090E022E023871582108208951E
:2027C000953009F455C094819695811180E8892B848395819F5F983010F4958349C0158295
:2027E0009385923011F493E093879385933009F03FC04D915C91119714962D913C91159746
:202800004217530759F412964D915C91139716962D913C9117974217530761F112964D912B
:202820005C9113972D913C911197215031094217530701F11296ED91FC9113978083129676
:202840002D913C91139716968D919C9117972817390729F414968D919C91159705C01296F4
:202860008D919C911397019613969C938E93129780E001C081E090E00895CF93DF93FC01CA
:20288000DB018081853051F483858B7F823031F0968181E0892786831082C0C0858188307B
:2028A00008F49EC0158283858330B1F130F4813009F480C0823051F093C0853009F45BC0A5
:2028C00008F451C0863009F45FC08AC081818150818381117DC0CD91DC91119716968D91EC
:2028E0009C911797C817D90729F414968D919C91159705C0CD91DC911197CE01019611963B
:202900009C938E93888184838FEF9FEF908787831582108283E025C0CD91DC91119716969A
:202920008D919C911797C817D90729F414968D919C91159705C0CD91DC911197CE01019683
:2029400011969C938E93888184832D913C91119712968D919C9113972817390709F040C028
:2029600084E083873DC087819085818792878095848385E0F6CF82858095848386E08387D5
:2029800083818F5F81832CC02D913C91119712968D919C9113972817390721F082E0838789
:2029A00081E015C0818181508183811111C081E083870EC02D913C91119712968D919C9148
:2029C00013972817390739F082E08387828181838EE7848305C088E085838FEF9FEF21C094
:2029E0008481482F417080FF03C090819F5F90838695848385818F5F858327813085C90101
:202A000096958795242720FF04C028E0822724E8922790878783442309F43ACF8681817045
:202A200090E0DF91CF910895FC0162830895FC0163830895FC0181E083871082158214868F
:202A40000895DC01A255BD4FFC01E355FD4F3C912081230F32963081230F31963081230F83
:202A600031963081230F31963081230F31963081230F129738978C919081980F822F890FC2
:202A800080950895AF92BF92CF92DF92EF92FF920F931F93CF93DF9300D0CDB7DEB78C0170
:202AA000D62E79015C0186E6A81A8DEFB80AF5016081718180EC90E049835A830E94D30606
:202AC000F501608171818D2D90E00E94D306F801E856FD4FC080D1804981042F5A81152F58
:202AE000E00EF11E0E151F0559F1C6010E949E0FF80181918F01803C79F08B3DD1F4F501EF
:202B0000608171818BED90E00E94D306F501608171818DED90E011C0F501608171818BEDBA
:202B200090E00E94D306F501608171818CED90E004C0F5016081718190E00E94D306D2CFDF
:202B4000F5016081718180EC90E00F900F90DF91CF911F910F91FF90EF90DF90CF90BF9047
:202B6000AF900C94D3060F931F93CF93DF9300D0CDB7DEB78C018CE08983F801E055FD4F0D
:202B800080818A8322E030E0AE014F5F5F4F66E0C8010E944215F801E656FD4F808191816E
:202BA000DC011A96ED91FC911B9709950F900F90DF91CF911F910F9108950F931F93CF937C
:202BC000DF9300D0CDB7DEB78C018DE08983F801E856FD4F0190F081E02DEE53FF4F808172
:202BE0008A8322E030E0AE014F5F5F4F66E0C8010E944215F801E656FD4F80819181DC0132
:202C00001A96ED91FC911B9709950F900F90DF91CF911F910F9108950F931F93CF93DF9386
:202C200000D0CDB7DEB78C018EE08983F801EE54FD4F80818A8322E030E0AE014F5F5F4FF2
:202C400066E0C8010E944215F801E656FD4F80819181DC011A96ED91FC911B9709950F9051
:202C60000F90DF91CF911F910F9108950F931F93CF93DF9300D0CDB7DEB78C0181E28983EB
:202C8000F801E555FD4F80818A8322E030E0AE014F5F5F4F66E0C8010E944215F801E6564D
:202CA000FD4F80819181DC011A96ED91FC911B9709950F900F90DF91CF911F910F910895D2
:202CC0000F931F93CF93DF9300D0CDB7DEB78C0182E28983F801E455FD4F80818A8322E058
:202CE00030E0AE014F5F5F4F66E0C8010E944215F801E656FD4F80819181DC011A96ED9112
:202D0000FC911B9709950F900F90DF91CF911F910F9108950F931F93CF93DF9300D0CDB75F
:202D2000DEB78C0183E28983F801E355FD4F80818A8322E030E0AE014F5F5F4F66E0C80149
:202D40000E944215F801E656FD4F80819181DC011A96ED91FC911B9709950F900F90DF9150
:202D6000CF911F910F9108950F931F93CF93DF9300D0CDB7DEB78C0185E28983F801E155C6
:202D8000FD4F80818A8322E030E0AE014F5F5F4F66E0C8010E944215F801E656FD4F808132
:202DA0009181DC011A96ED91FC911B9709950F900F90DF91CF911F910F9108950F931F93CA
:202DC000CF93DF9300D0CDB7DEB78C0181E18983F801ED54FD4F8081869581708A8322E099
:202DE00030E0AE014F5F5F4F66E0C8010E944215F801E656FD4F80819181DC011A96ED9111
:202E0000FC911B9709950F900F90DF91CF911F910F9108950F931F93CF93DF9300D0CDB75E
:202E2000DEB78C0186E48983F801ED54FD4F808181708A8322E030E0AE014F5F5F4F66E012
:202E4000C8010E944215F801E656FD4F80819181DC011A96ED91FC911B9709950F900F90F6
:202E6000DF91CF911F910F9108950F931F93CF93DF9300D0CDB7DEB78C0180E58983F8018D
:202E8000ED54FD4F808184FB992790F981E089278A8322E030E0AE014F5F5F4F66E0C80192
:202EA0000E944215F801E656FD4F80819181DC011A96ED91FC911B9709950F900F90DF91EF
:202EC000CF911F910F9108950F931F93CF93DF9300D0CDB7DEB78C018AE48983F801ED5453
:202EE000FD4F808182FB882780F98A8322E030E0AE014F5F5F4F66E0C8010E944215F801B5
:202F0000E656FD4F80819181DC011A96ED91FC911B9709950F900F90DF91CF911F910F91D0
:202F200008950F931F93CF93DF9300D0CDB7DEB78C018CE48983F801ED54FD4F808183FBD5
:202F4000882780F98A8322E030E0AE014F5F5F4F66E0C8010E944215F801E656FD4F808195
:202F60009181DC011A96ED91FC911B9709950F900F90DF91CF911F910F9108950F931F9308
:202F8000CF93DF9300D01F92CDB7DEB78C018EE789838FE18A830E94AE21811180E29A81B8
:202FA000892B8A8383E08B8323E030E0AE014F5F5F4F66E0C8010E944215F801E656FD4F38
:202FC00080819181DC011A96ED91FC911B9709950F900F900F90DF91CF911F910F9108955C
:202FE0000F931F93CF93DF9300D0CDB7DEB78C0184E08983F801E856FD4F0190F081E02D31
:20300000EF53FF4F80818A8322E030E0AE014F5F5F4F66E0C8010E944215F801E656FD4F6C
:2030200080819181DC011A96ED91FC911B9709950F900F90DF91CF911F910F910895CF9338
:20304000DF93EC010E942115FE01EC54FD4F80834AE050E062E070E0CE0185559D4FDF91BA
:20306000CF910C946A290F931F93CF93DF9300D01F92CDB7DEB78C010E949D2326E029835A
:203080009A838B8323E030E0AE014F5F5F4F66E0C8010E944215F801E656FD4F808191814B
:2030A000DC011A96ED91FC911B9709950F900F900F90DF91CF911F910F910895AF92BF92FC
:2030C000CF92DF92EF92FF920F931F93CF93DF938C015B017A01EC01C656DD4F6881798168
:2030E00080EC90E00E94D3066881798186E090E00E94D306F801E856FD4FC080D1808501AB
:20310000EA0CFB1C0E151F0539F1C6010E949E0FF8018491803C69F08B3DB1F468817981A8
:203120008BED90E00E94D306688179818DED90E00EC0688179818BED90E00E94D306688162
:2031400079818CED90E003C06881798190E00E94D3060F5F1F4FD6CF6881798180EC90E0BB
:20316000DF91CF911F910F91FF90EF90DF90CF90BF90AF900C94D306CF93DF93EC018FE913
:2031800093E00E944329AC016FE973E0CE010E945E18C656DD4F88819981DC011A96ED91F9
:2031A000FC911B97DF91CF910994CF93DF93EC0184EA93E00E944329AC0164EA73E0CE0196
:2031C0000E945E18C656DD4F88819981DC011A96ED91FC911B97DF91CF910994EF92FF92A3
:2031E0000F931F93CF93DF93FC01E356FD4F2081273009F4C1C0EC018C0108561D4FD80192
:203200008D919C91DC011C96ED91FC911D97099584FDB2C07E01B6EBEB1ABEEFFB0AF801B4
:20322000808191810E94F5068F3FFFEF9F0791F0F701208131812A34F1E03F0780F7A9011A
:203240004F5F5F4FD7014D935C93FE01E20FF31F8083E5CFD8018D919C91DC011C96ED9181
:20326000FC911D9709958230910509F45AC024F4019709F465C080C08330910509F468C090
:20328000049709F079C07E01B6EBEB1ABEEFFB0AF701808191818A309105B0F1DE019E0110
:2032A000280F391FEFEFFFEFA217B30779F06D914F2F5527E627FF27EE0FFF1FE859FF4F02
:2032C00065917491FB01E427F527EECFE83BF04F21F084E080936D0617C00297D7018D934E
:2032E0009C93FE01ED54FD4F808180FD09C0F70120813181AE0160E0CE010E94421504C006
:203300000E94AE218111F3CFD8018D919C91DC011E96ED91FC911F970995F70111821082B7
:203320002BC084E080936D06D8018D919C91DC011E96ED91FC911F970995C65BDE4F1AC07C
:20334000C65BDE4F888199810A9758F083E007C0C65BDE4F888199810A9718F085E0809357
:203360006D06F80180819181DC011E96ED91FC911F97099519821882DF91CF911F910F9189
:20338000FF90EF9008952F923F924F925F926F927F928F929F92AF92BF92CF92DF92EF92D5
:2033A000FF920F931F93CF93DF93CDB7DEB764970FB6F894DEBF0FBECDBF8C0182E88093EF
:2033C0006C06580123E6A21A2DEFB20AD5018C91863009F0C0C086E880936C06F801E15541
:2033E000FD4F80818111F6C487E880936C067801BEE5EB1ABDEFFB0AF70140805180628003
:203400007380411451046104710429F18FB7F89440913506509136066091370670913806B3
:203420008FBF3B9680814419550966097709FAE08F9FC0011124AA2797FDA095BA2F4817E2
:2034400059076A077B070CF454C0D7011D921D921D921C921397F801E856FD4F8081918132
:203460007A962081FC01211106C0E054FF4F8081882361F005C0EF53FF4F8081853030F0FC
:2034800088E880936C060E94332933C089E880936C060E943329C92ED12CC826F801E4553E
:2034A000FD4F808190E0C816D90608F493C48AE880936C068FB7F89440913506509136064D
:2034C00060913706709138068FBF411551056105710531F0F701408351836283738309C055
:2034E00081E090E0A0E0B0E0F70180839183A283B3832FB7F8948091350690913606A09135
:203500003706B09138062FBFF801E256FD4F4081518162817381841B950BA60BB70B8133B4
:203520009547A105B1050CF481C48CE880936C06F801E856FD4F80819181DC011A96ED9174
:20354000FC911B970995F801EA56FD4F1182108285E0F501808383E880936C062801F6E691
:203560004F1AFDEF5F0AD2018D919C91DC011C96ED91FC911D970995009799F51801B2E6AD
:203580002B1ABDEF3B0A4801EAE68E1AEDEF9E0AC80186559D4F3C01D801A456BD4FBC83C5
:2035A000AB83F801E45BFE4FF887EF8303969A8789875396BC87AB87EE59FE4FFE83ED83BA
:2035C0007801F8E6EF1AFDEFFF0A805691409E878D8714966D01F801EF54FD4FF88BEF871D
:2035E0003BC089709927892B11F087E001C088E080936D06D2018D919C91DC011E96ED911F
:20360000FC911F970995F801EA56FD4F1182108281E0F50180830AC4A89524E820936C0689
:203620002FB7F894409135065091360660913706709138062FBFD1014D935D936D937C93E3
:203640001397F5012081243009F48DC078F4213091F0223009F459C0D2018D919C910E9425
:20366000F5068F3FBFEF9B07B9F62EC3253009F4A8C0273089F7803C910539F482E0D50149
:203680008C93F401118210823DC08B31910531F4F301808180FD36C08F5FF7C28335910520
:2036A00089F5D3018C9180FF2DC08F5F8C93F201608171818FE390E00E94D306D2018D910E
:2036C0009C91DC011A96ED91FC911B970995F3018081883009F60E946825F89488E10FB640
:2036E000F89480936000109260000FBE28E088E190E00FB6F894A895809360000FBE20939A
:203700006000FFCFD3011C92A7CF803C910509F4A3CF9C01207F3327232B11F081E0B4C206
:203720008F70AB81BC818C938FB7F894409135065091360660913706709138068FBFCA0181
:20374000498B5A8B6C8B7B8B0E943829F801EA55FD4F49895A896C897B8940835183628302
:20376000738385E091C28C3D910531F08D3D910529F48BED90E002C080EC90E0D4012D9185
:203780003C911197A9014F5F5F4F4D935C93200F311FF901E45BFE4F80838FB7F894409134
:2037A00035065091360660913706709138068FBFF101408351836283738385E0D5018C9338
:2037C0004BCF8B3D910511F484E05EC2803C910541F0D4012D913C912A34B1E03B0709F0DB
:2037E00056C2EB81FC818081882309F432C292E0D5019C93EF81F88520818330E1F048F466
:20380000813069F0823009F020C2F801E455FD4F14C08530F9F098F0863001F116C2F80120
:20382000E555FD4F2083622F70E0D7018D919C910E9484120AC2E985FA85208306C2AD81D1
:20384000BE812C93622F70E0F701808191810E948C12FBC1AB85BC852C93F7C1ED85FE85A5
:203860006081223209F420C108F070C0283009F400C1C0F5243009F4F1C090F4223009F46D
:20388000D9C008F0E0C0213009F0DFC1F801E055FD4F6083D701ED91FC91ED53FF4FDCC0A3
:2038A000263009F444C108F0E2C0D7018D919C910E94C912C8010E94F01787E0F5018083A4
:2038C0008FB7F894409135065091360660913706709138068FBFD1014D935D936D937C9381
:2038E0001397B3C12D3009F4D6C088F42A3009F4CCC008F4C3C02C3009F0A7C1F701808126
:2039000091810E94C912C8010E94B3159EC1203109F416C160F42E3009F097C1F701808165
:2039200091810E94C912C8010E940C168EC1213109F410C1213209F088C1D7018D919C9144
:203940000E94C912C8010E9436167FC1263409F418C1F0F4283209F4D8C088F4243209F421
:20396000B5C008F4AAC0253209F06FC1F701808191810E94C912C8010E94B41666C12A32AC
:2039800009F454C008F4CAC0253409F4E7C05DC12C3409F449C148F42A3409F425C108F099
:2039A0002CC1293409F40BC150C1203509F403C120F42F3409F4EEC048C12E3709F43DC142
:2039C0002F3709F042C1F701808191810E94C912C8010E94BC18C8010E94D518C8010E94FB
:2039E0003616C8010E946016C8010E948A16C8010E94B416C8010E94B315C8010E940C169A
:203A0000C8010E94DD15C8010E943318C8010E94DE16C8010E943517C8010E946417C801CE
:203A20000E949117C8010E94BE17ABC0C8010E941F180BC1EF85F8896083D701ED91FC9168
:203A4000EE53FF4F09C0F801EE54FD4F6083D701ED91FC91EC53FF4F6083F7C0F7018081A1
:203A600091810E94C912C8010E94F017EEC061E106C060E1D7018D919C9104C062E1F7012C
:203A8000808191810E949412E0C0D7018D919C910E94C912DAC0D7018D919C910E94C91251
:203AA000C8010E94DD15D1C0F701808191810E94C912C8010E946016C8C0D7018D919C9104
:203AC0000E94C912C8010E948A16BFC0F70180819181298B0E94C91229892983AD81BE81D8
:203AE0008C918A8322E030E0AE014F5F5F4F66E0C8010E944215F20180819181DC011A96E4
:203B0000ED91FC911B970995A0C0D7018D919C910E94C912C8010E94D51897C0F7018081A2
:203B200091810E94C912C8010E94BC188EC0D7018D919C910E94C912C8010E94331885C0CE
:203B4000662321F0F6018081826014C0D6018C918D7F15C0C8010E94DE1677C06C8B0E9419
:203B6000AE216C89882309F470C0662329F0F60180818160808369C0D6018C918E7F8C93E2
:203B800064C00E94AE21882309F45FC0C8010E940A175BC0611105C0F6018081806180830F
:203BA00004C0D6018C918F7E8C93F701808191810E9482134AC0C8010E94351746C066238F
:203BC00029F0D6018C9184608C9304C0F60180818B7F80836C8B0E9450246C89662311F080
:203BE00081601FC08E7F1DC0D7018D919C910E94C912C8010E94641728C0662329F0F60114
:203C000080818860808304C0D6018C91877F8C936C8B0E9450246C89662311F0826001C0AC
:203C20008D7F0E944D2411C0F701808191810E94C912C8010E94911708C0D7018D919C910E
:203C40000E94C912C8010E94BE17D4011D921C9203CD87E980936C06F401808191810A9707
:203C600080F086E0D5018C938FB7F894409135065091360660913706709138068FBFF101D1
:203C800076C01182108282E0F5018083E5CCA9014F5F5F4FD4014D935C93200F311FF9019A
:203CA000E45BFE4F80838FB7F894409135065091360660913706709138068FBFF10140830A
:203CC000518362837383C8CC85E880936C06F5018081873009F050C02FB7F894809135063A
:203CE00090913606A0913706B09138062FBF7801F2E6EF1AFDEFFF0AF701408151816281CF
:203D00007381841B950BA60BB70B8D329140A105B105ACF1C8010E94F0178FE08983F8018E
:203D2000E856FD4F0190F081E02DE054FF4F80818A8322E030E0AE014F5F5F4F66E0C8012E
:203D40000E944215D2018D919C91DC011A96ED91FC911B9709958FB7F894409135065091A5
:203D6000360660913706709138068FBFF70140835183628373835AC0813009F457C02FB71D
:203D8000F8948091350690913606A0913706B09138062FBFF801E256FD4F40815181628120
:203DA0007381841B950BA60BB70B813D9740A105B105E4F1F801EA56FD4F80819181892B4B
:203DC00029F086E080936D061182108281E0D5018C932CC06801B8E6CB1ABDEFDB0AF60103
:203DE000808191817801FAE6EF1AFDEFFF0AD7014D915C91DC011296ED91FC911397B801C3
:203E0000645B7E4F09958CE880936C06F60180819181DC011A96ED91FC911B970995F70195
:203E20001182108285E0D5018C9395CB64960FB6F894DEBF0FBECDBFDF91CF911F910F9142
:203E4000FF90EF90DF90CF90BF90AF909F908F907F906F905F904F903F902F9008955F92B2
:203E60006F927F928F929F92AF92BF92CF92DF92EF92FF920F931F93CF93DF933C0185EB93
:203E800092E0F3019C01119221503040E1F7E301C856DD4F79836883F301E656FD4F51835E
:203EA00040833396552453945082830105551D4F4AE050E062E070E0C8010E944C29C3016A
:203EC0000E942115F301EC54FD4F908136974F01930120553D4F590133966F012E5F3F4F19
:203EE00079019817D9F081E2F8018083319680E4808331968AE08083F401508231961082EF
:203F000080E8F501808382E0F6018083F9011082319680E18083C3010E941F18F8016081B6
:203F200070E0888199810E948412F401608170E0888199810E948C12F5018081E881F98173
:203F4000ED53FF4F8083F6018081E881F981EE53FF4F8083F7018081E881F981EC53FF4FFA
:203F60008083DF91CF911F910F91FF90EF90DF90CF90BF90AF909F908F907F906F905F9069
:203F8000089578940E94BD060E941A2489E396E00E94B421C82FD0E010926C0612E010938A
:203FA0006D0640E050E060E070E08FE595E00E94D11281E080936C0649E356E06FE575E04F
:203FC0008AEA92E00E942F1F10936C0680915D0582FF05C00E94502481600E944D24809122
:203FE0005D0583FF05C00E94502482600E944D2480915D0584FF02C060E001C061E08FE59F
:2040000095E00E948213CE010E945B240E94372428E288E190E00FB6F894A8958093600023
:204020000FBE2093600082E0D82E93E0E92E24E0F22E05E016E00E94312481110E94F3246D
:2040400080916D06823009F443C080915D0581FD03C0D0926D063CC08FE595E00E949E0F6D
:20406000CBE9D3E0CE01FE012491222351F02196FC01849169E376E090E00E94D3060196E3
:2040800089F780916D060E944D25EC01CE01FE012491222351F02196FC01849169E376E0A7
:2040A00090E00E94D306019689F7C8E9D3E0CE01FE012491222309F4CCCF2196FC01849171
:2040C00069E376E090E00E94D306019681F7C1CFE0926C068FE595E00E949E0FF0926C06A4
:2040E0008AEA92E00E94EE1800936C068AEA92E00E94C31910936C068FE595E00E94C11058
:20410000A89599CF4F925F926F927F92AF92BF92CF92DF92EF92FF921F93CF93DF93CDB796
:20412000DEB75C01CDB6DEB68FB7F894409035065090360660903706709038068FBF8DB780
:204140009EB70E970FB6F8949EBF0FBE8DBFEDB7FEB731967F018EE011928A95E9F710E0FE
:204160002FB7F8948091350690913606A0913706B09138062FBF84199509A609B709883ED9
:204180009340A105B1050CF5C5010E94F5068F3FFFEF9F0729F38D30910511F3212F30E057
:2041A0008A30910511F5C901E5E3F3E02491AC014F5F5F4F30E0D701A80FB91F8C91992732
:2041C00087FD90952817390711F080E017C04E30510511F440E050E0319623E0E334F2077C
:2041E00011F0CA01E3CF81E009C01F5FF701E20FF31F80831E3009F0B3CFB1CF0FB6F89401
:20420000DEBE0FBECDBEDF91CF911F91FF90EF90DF90CF90BF90AF907F906F905F904F90E4
:2042200008954F925F926F927F92AF92BF92CF92DF92EF92FF920F931F93CF93DF93CDB7DB
:20424000DEB75C01CDB6DEB68FB7F894409035065090360660903706709038068FBF00D0D3
:204260008DB79EB701967C0100E010E08FB7F8944091350650913606609137067091380659
:204280008FBF4419550966097709483E5340610571054CF5C5010E94F5068F3FAFEF9A0780
:2042A00029F38A30910509F501151105F9F202301105C9F4EFE2F3E0E491F0E0D7018C919A
:2042C000992787FD9095E817F90769F4E0E3F3E0E491F0E011962C91332727FD309581E036
:2042E000E217F30769F080E00BC00230110509F4BDCFF701E00FF11F80830F5F1F4FB6CF1B
:204300000FB6F894DEBE0FBECDBEDF91CF911F910F91FF90EF90DF90CF90BF90AF907F90BF
:204320006F905F904F900895459A3D98549A5C9A64EF71E080E090E00C9411063D9A45989C
:2043400065E070E080E090E00E941106549A5C9865E070E080E090E00C94110689B18095F2
:20436000881F8827881F0895EF92FF920F931F93CF93DF93EC01559A57985F9A80E090E0D5
:204380000E946429823A904C09F451C160E273E080E090E00E9411065D9A68EE73E080E029
:2043A00090E00E9411063D9A459868EC70E080E090E00E941106459A3D9860E273E080E04A
:2043C00090E00E9411060AE213E0C801F8012491222351F00F5F1F4FFC018491BE0190E0BB
:2043E0000E94D306019689F7EA85FB85CE010995CE010E9411210AE213E0C801F8012491D6
:20440000222351F00F5F1F4FFC018491BE0190E00E94D306019689F7EA85FB85CE0109950B
:20442000CE010E941121811113C05D983D9A459868EC70E080E090E00E941106459A3D98EA
:2044400060E273E080E090E00E94110681E0F0C000E113E0C801F8012491222351F00F5FEE
:204460001F4FFC018491BE0190E00E94D306019689F7EA85FB85CE010995CE010E941121FC
:2044800011E0182765E0E62E63E0F62EC701F7012491222359F0FFEFEF1AFF0AFC01849117
:2044A000BE0190E00E94D306019681F7EA85FB85CE010995CE010E948220082FCE010E942C
:2044C0001121811101C01260011184C05CEFE52E52E0F52EC701F7012491222359F0FFEFEB
:2044E000EF1AFF0AFC018491BE0190E00E94D306019681F745E3E42E43E0F42EC701F701A0
:204500002491222359F0FFEFEF1AFF0AFC018491BE0190E00E94D306019681F732E3E32E67
:2045200033E0F32EC701F7012491222359F0FFEFEF1AFF0AFC018491BE0190E00E94D30688
:20454000019681F7EA85FB85CE010995CE010E941121882311F0146001C01C6028EEE22ECA
:2045600022E0F22EC701F7012491222359F0FFEFEF1AFF0AFC018491BE0190E00E94D3065A
:20458000019681F7EA85FB85CE010995CE010E941121811101C010619FE1E92E93E0F92E18
:2045A000C701F7012491222359F0FFEFEF1AFF0AFC018491BE0190E00E94D306019681F72D
:2045C000EA85FB85CE010995CE010E941121811101C0106268EE73E080E090E00E941106E5
:2045E0005D988FE1E82E83E0F82EC701F7012491222359F0FFEFEF1AFF0AFC018491BE01E3
:2046000090E00E94D306019681F7EA85FB85CE010995CE010E941121811101C0106462EA8E
:2046200070EC80E090E00E948229812F01C080E0DF91CF911F910F91FF90EF900895FC0168
:204640008AE0DF011D928A95E9F782E0838386E084838CE085830895CF92DF92EF92FF9298
:20466000CF93DF93FC0122812F5F2283C12CD12C7601C39446171CF0C12CD12C760186810A
:204680009781A085B185880F991FAA1FBB1F8C299D29AE29BF2986839783A087B1872F3199
:2046A00009F044C01282AC01BD01440F551F661F771F482759276A277B27CFE1D0E030E08A
:2046C00021E077FF05C02150233020F03F5F02C02F5F01C020E0440F551F661F771F219781
:2046E00081F7253008F03F5F2081220F20834381431720F0892B8A2B8B2B11F4216020836C
:20470000808190E0882321F087FD9F5F880FFACF8481891710F0858104C08181882311F06D
:20472000815081831682178210861186DF91CF91FF90EF90DF90CF900895CF92DF92EF92AA
:20474000FF923B9A439AF8943A98429880917E00846080937E0060917A0070917B00E09182
:204760007C0087E880937A0080917B00887F80937B0082E680937C0078948AE0C12CD12C49
:20478000760190917A00906490937A0090917A0096FDFCCF209178003091790040E050E0CA
:2047A000C216D306E406F50629F0815019F069017A01E7CFF894E0937C0060937A007093EA
:2047C0007B00789443983B98A4E6B0E00E94832820ED33E040E050E00E94A228C901FF9008
:2047E000EF90DF90CF9008951F920F920FB60F9211248F93E89880912601813011F41092B0
:2048000025018F910F900FBE0F901F9018951F920F920FB60F9211248F93E9988091260123
:20482000813011F4109225018F910F900FBE0F901F90189560E070E089E396E00E94EC056E
:2048400040E056E960E070E089E396E00E944F050E949421399A419A209A28983B98529855
:20486000089581E090912501911180E008955398F89481E08093260188E08093690082E0FC
:204880008DBB80912E0681FF06C080916900836080936900E89A7894089580932E0608955D
:2048A00080912E06089552988BB182FB882780F991E0892708950F931F93CF93DF938C01D8
:2048C000C7E7D3E0CE01FE012491222351F02196FC01849169E376E090E00E94D306019681
:2048E00089F7CBE6D3E0CE01FE012491222351F02196FC01849169E376E090E00E94D30675
:20490000019689F7C5EAD3E0CE01FE012491222351F02196FC01849169E376E090E00E9498
:20492000D306019689F7C8E9D3E0CE01FE012491222351F02196FC01849169E376E090E03F
:204940000E94D306019689F70E949D239F938F938FE591E09F938F93C9E3D6E0DF93CF93A0
:204960000E940E070E9453240F900F900F900F900F900F90882361F083E593E09F938F9382
:20498000DF93CF930E940E070F900F900F900F900115110591F01F930F9382E791E09F9303
:2049A0008F9389E396E09F938F930E940E070F900F900F900F900F900F90C4E4D3E0CE0104
:2049C000FE012491222351F02196FC01849169E376E090E00E94D306019689F7DF91CF9160
:2049E0001F910F9108951092260181E08093250188E10FB6F89480936000109260000FBE6B
:204A00000E949E21F894419839982098289843983B9890917A0010927A008FEF809364002D
:204A200088E08093690082E08DBB80912E0680FDE89A88E10FB6F894809360001092600075
:204A40000FBE83B7817F846083BF83B7816083BF80E685BF80E485BF7894889583B78E7F0A
:204A600083BF81E0809326011DBA1092640090937A000E941A2480E090E00E945B240E946C
:204A8000372428E288E190E00FB6F894A895809360000FBE209360000895893048F4E82F4E
:204AA000F0E0EE0FFF1FEC57FE4F8081918108958FEA93E00895F999FECFF89492BD81BDCA
:204AC00081E08FBB60BD84E28FBBF99A789408951F93CF93DF93C8EFD3E01C2F185FCE01A1
:204AE0000E945C29882319F0282F90E01CC02196CC3F83E0D80789F76FE788EF93E00E94D2
:204B000074296FEF89EF93E00E9474296FEF8AEF93E00E9474296FEF8BEF93E0DF91CF91CC
:204B20001F910C94742920FF03C09F5F2695FBCF90FD12C0915061E070E001C0660F9A95ED
:204B4000EAF760956823812F90E088509C4FDF91CF911F910C945B25DF91CF911F91089554
:204B60007093300660932F06982F906490937C0047B121E030E0B90102C0660F771F8A95CB
:204B8000E2F7CB01362F3095232F242327B998B1932398B9EEE7F0E09081892B8083EAE73F
:204BA000F0E087E08083ABE7B0E08C91887F8C938081886E808308951F920F920FB60F9207
:204BC00011242F933F938F939F93AF93BF93EF93FF93E0912F06F091300620A931A984A9E3
:204BE00095A92817390739F422A933A986A997A92817390741F022A933A980A991A9019763
:204C00002817390721F481E080936D062BC080917800909179009250DF01AE53BF4F0C909E
:204C200002C0959587950A94E2F78038910514F08FE790E0A2A9B3A980382FEF920714F49F
:204C400080E89FEF8C9322A933A986A997A92817390719F484A995A903C082A993A9019671
:204C600093AB82ABFF91EF91BF91AF919F918F913F912F910F900FBE0F901F9018951F9231
:204C80000F920FB60F9211242F933F934F935F936F937F938F939F93AF93BF93EF93FF9360
:204CA00080912F06909130060E94DC1187BDFF91EF91BF91AF919F918F917F916F915F9194
:204CC0004F913F912F910F900FBE0F901F9018955058BB27AA270ED075C166D130F06BD1FB
:204CE00020F031F49F3F11F41EF45BC10EF4E095E7FB51C1E92F77D180F3BA17620773077C
:204D00008407950718F071F49EF58FC10EF4E0950B2EBA2FA02D0B01B90190010C01CA0187
:204D2000A0011124FF27591B99F0593F50F4503E68F11A16F040A22F232F342F4427585FAF
:204D4000F3CF469537952795A795F0405395C9F77EF41F16BA0B620B730B840BBAF09150A9
:204D6000A1F0FF0FBB1F661F771F881FC2F70EC0BA0F621F731F841F48F487957795679592
:204D8000B795F7959E3F08F0B3CF9395880F08F09927EE0F979587950895D9D008F481E085
:204DA00008950CD00FC107D140F0FED030F021F45F3F19F0F0C0511139C1F3C014D198F3C9
:204DC0009923C9F35523B1F3951B550BBB27AA2762177307840738F09F5F5F4F220F331FA7
:204DE000441FAA1FA9F333D00E2E3AF0E0E830D091505040E695001CCAF729D0FE2F27D0D4
:204E0000660F771F881FBB1F261737074807AB07B0E809F0BB0B802DBF01FF2793585F4F07
:204E20002AF09E3F510568F0B6C000C15F3FECF3983EDCF3869577956795B795F7959F5F7B
:204E4000C9F7880F911D9695879597F90895E1E0660F771F881FBB1F621773078407BA074D
:204E600020F0621B730B840BBA0BEE1F88F7E095089504D06894B111D9C00895BCD088F069
:204E80009F5790F0B92F9927B751A0F0D1F0660F771F881F991F1AF0BA95C9F712C0B13065
:204EA00081F0C3D0B1E00895C0C0672F782F8827B85F39F0B93FCCF3869577956795B395F2
:204EC000D9F73EF490958095709561957F4F8F4F9F4F0895E89409C097FB3EF49095809521
:204EE000709561957F4F8F4F9F4F9923A9F0F92F96E9BB279395F695879577956795B7951C
:204F0000F111F8CFFAF4BB0F11F460FF1BC06F5F7F4F8F4F9F4F16C0882311F096E911C097
:204F2000772321F09EE8872F762F05C0662371F096E8862F70E060E02AF09A95660F771F1F
:204F4000881FDAF7880F9695879597F90895990F0008550FAA0BE0E8FEEF16161706E80718
:204F6000F907C0F012161306E407F50798F0621B730B840B950B39F40A2661F0232B242B5C
:204F8000252B21F408950A2609F4A140A6958FEF811D811D089597F99F6780E870E060E0E1
:204FA00008959FEF80EC089500240A941616170618060906089500240A94121613061406CB
:204FC00005060895092E0394000C11F4882352F0BB0F40F4BF2B11F460FF04C06F5F7F4FB1
:204FE0008F4F9F4F089557FD9058440F551F59F05F3F71F04795880F97FB991F61F09F3F11
:2050000079F087950895121613061406551FF2CF4695F1DF08C0161617061806991FF1CF8C
:2050200086957105610508940895E894BB2766277727CB0197F908958ADF08F48FEF08953E
:205040000BD0C0CFB1DF28F0B6DF18F0952309F0A2CFA7CF1124EACFC6DFA0F3959FD1F3EB
:20506000950F50E0551F629FF001729FBB27F00DB11D639FAA27F00DB11DAA1F649F662741
:20508000B00DA11D661F829F2227B00DA11D621F739FB00DA11D621F839FA00D611D221F0E
:2050A000749F3327A00D611D231F849F600D211D822F762F6A2F11249F5750408AF0E1F053
:2050C00088234AF0EE0FFF1FBB1F661F771F881F91505040A9F79E3F510570F05CCFA6CFF0
:2050E0005F3FECF3983EDCF3869577956795B795F795E7959F5FC1F7FE2B880F911D9695C8
:20510000879597F908950E94C428A59F900DB49F900DA49F800D911D1124089597FB072ED0
:2051200016F4009407D077FD09D00E94D32807FC05D03EF4909581959F4F08957095619545
:205140007F4F0895A1E21A2EAA1BBB1BFD010DC0AA1FBB1FEE1FFF1FA217B307E407F5078B
:2051600020F0A21BB30BE40BF50B661F771F881F991F1A9469F760957095809590959B015D
:20518000AC01BD01CF010895A29FB001B39FC001A39F700D811D1124911DB29F700D811D86
:2051A0001124911D0895AA1BBB1B51E107C0AA1FBB1FA617B70710F0A61BB70B881F991FDB
:2051C0005A95A9F780959095BC01CD0108958F929F92AF92BF92CF92DF92EF92FF92CF93B4
:2051E000DF93EC01688179818A819B81611571058105910521F464E279ED8BE597E02DE188
:2052000033EF41E050E00E948F2949015A019B01AC01A7EAB1E40E9483286B017C01ACEEDD
:20522000B4EFA50194010E948A29DC01CB018C0D9D1DAE1DBF1DB7FF03C00197A109B048E5
:2052400088839983AA83BB839F77DF91CF91FF90EF90DF90CF90BF90AF909F908F90089581
:205260000E94E728089580E091E00E94E7280895A0E0B0E08093000190930101A093020142
:20528000B09303010895FC0105900020E9F7809590958E0F9F1F0895DC01CB01FC01F9992E
:2052A000FECF06C0F2BDE1BDF89A319600B40D9241505040B8F70895F999FECF92BD81BD09
:2052C000F89A992780B50895A8E1B0E042E050E00C944E29DC01CB0103C02D910E947529BE
:2052E00041505040D0F70895262FF999FECF1FBA92BD81BD20BD0FB6F894FA9AF99A0FBEED
:20530000019608950E947429272F0C947529B7FF0C9483280E948328821B930B0895052E2D
:2053200097FB1EF400940E94A62957FD07D00E94A22807FC03D04EF40C94A62950954095EC
:20534000309521953F4F4F4F5F4F089590958095709561957F4F8F4F9F4F0895F894FFCF95
:205360000100000033019E029E01040000010027019A01960104000400003F3F3F003C4E0B
:20538000554C4C3E0001018F02A602AE02AF02B302B00259025F026C0283026202B00230EA
:2053A000313233343536373839414243444546303132333435363738396162636465663DDC
:2053C0003D20566F6C746167653A2025756D560D0A003D3D2048432D3035203D2025303215
:1653E000780D0A0053043A042C0419040804F803E103CB03BD03CD
:207000000C9434380C9451380C9451380C9451380C9451380C9451380C9451380C94513845
:207020000C9451380C9451380C9451380C9451380C9451380C9451380C9451380C94513808
:207040000C9451380C9451380C9451380C9451380C9451380C9451380C9451380C945138E8
:207060000C9451380C94513811241FBECFEFD8E0DEBFCDBF11E0A0E0B1E0ECE0F8E702C09E
:2070800005900D92A230B107D9F711E0A2E0B1E001C01D92A238B107E1F70E94A8390C9461
:2070A000043C0C9400389C012627622F62956227062E669566956025062E66956025677083
:2070C000022E232F669507946795302D26270694679530252627C90108959091000192306F
:2070E00050F48091C00087FFFACF81E0809300018091C6000895FFCF90910001923058F445
:207100008093C6008091C00086FFFCCF8091C00080648093C00008950E946D38382F0E9400
:207120006D38282FC9010895AF92BF92CF92DF92EF92FF920F931F93CF93DF931F92CDB719
:20714000DEB77C015A0142E0C42E41E0D42E00E010E00E151F0528F469830E946D3869813B
:2071600001C08FEFF60181936F010F5F1F4F0038110579F76534B1F4F50160817181A7010C
:2071800082E091E00E94EC3BF50100811181228133810E0D1F1D211D311D00831183228354
:2071A00033831EC06634F1F4F50180819181A281B381F694E794AC01BD014E0D5F1D611D97
:2071C000711D4083518362837383BC01CD01660F771F881F991F21E042E051E00E945E3B2B
:2071E0008DE001C08FE30F90DF91CF911F910F91FF90EF90DF90CF90BF90AF900895EF92A8
:20720000FF920F931F93CF93DF937C01EA016534B1F468817981AC0182E091E00E94C23B0D
:2072200088819981AA81BB818E0D9F1DA11DB11D88839983AA83BB83C2E0D1E035C066346D
:20724000C9F588819981AA81BB81880F991FAA1FBB1F88839983AA83BB83A2E0B1E0C70187
:207260008A0F9B1FE881F981E491ED9307B600FCFDCF088119812A813B810F5F1F4F2F4F7A
:207280003F4F088319832A833B83A817B90751F73695279517950795088319832A833B83A6
:2072A000CBCF89910E947C38CE01825091408E159F05BCF3DF91CF911F910F91FF90EF902E
:2072C00008958F929F92AF92BF92CF92DF92EF92FF920F931F93CF93DF936B017C014901EE
:2072E0005A0100E810E0C0E0D0E01FC00038110569F4B701A60182E091E00E94513B80E8B9
:20730000C80ED11CE11CF11C00E010E0F801EE5FFE4F6081CE010E945338EC010F5F1F4F97
:2073200081E0881A9108A108B10881149104A104B104E1F6CE01DF91CF911F910F91FF9076
:20734000EF90DF90CF90BF90AF909F908F900895AF92BF92CF92DF92EF92FF920F931F939D
:20736000CF93DF9300D000D01F92CDB7DEB719821A821B821C82109200010E94A63B589A45
:2073800014BE88E10FB6F89480936000109260000FBE36E080EE93E9A4E0B0E041E0009753
:2073A000A105B10521F00197A109B10905C0315080EE93E9A4E0B0E02091C00027FF04C0C5
:2073C0004093000121E001C020E0A895222341F021E0E12CF12CDD24D39485E0C82E34C181
:2073E0003111DDCFF6CF0E946D38813611F489E525C1813429F40E948C38A0E0B0E008C073
:20740000883461F40E946D38A82F0E948C38BB2789839A83AB83BC838DE010C1853629F449
:207420000E943D3B0E94963BF7CF823641F489E50E947C3880E00E947C3880E8FFC08234B5
:2074400089F40E948C38B82EE82EF92E9D830E946D38AE014F5F5F4F682F8B2D9D810E94A5
:207460009438ECC0873689F40E948C38B82EE82EF92E9D830E946D38AE014F5F5F4F682FC8
:207480008B2D9D810E94FF38DBC0823559F4E981FA81EE0FFF1FA590B4908B2D0E947C3817
:2074A0008A2D47C0833629F40E946D38E82EF12CB3CF833499F40E946D38182F00E0E02A80
:2074C000F12A89819A81AB81BC81FC01EE0FFF1F0701D0925700E895112421C08D3691F44F
:2074E00089819A81AB81BC81811528E39207A105B10508F0A2C0FC01EE0FFF1FC09257004D
:20750000E8958ACF843479F40E946D38682F89819A810E94F63B89819A81AB81BC81019675
:20752000A11DB11D75CF843691F489819A810E94D23B0E947C3889819A81AB81BC810196ED
:20754000A11DB11D89839A83AB83BC8379C0803509F462CF8C3409F45FCF853429F48DE0BF
:207560000E947C3820E06DC0803711F483E566C0843729F48BE70E947C3880E05FC0982F58
:207580009857923010F0843519F40E946D3844CF8335A1F488E50E947C3882E40E947C384E
:2075A0008FE60E947C388FE60E947C3884E70E947C388BE20E947C388BE240C0863529F46C
:2075C00081E30E947C3887E339C0833741F48FE00E947C3885E90E947C388EE12FC08836FA
:2075E00051F50E946D38823429F0863481F0813451F412C020E030E140E050E060E070E740
:2076000080E090E010C08FE30E947C38ECCE20E030E840E050E004C020E030E740E050E0B5
:2076200060E070E0CB010E946139B82E892F0E947C388B2D03C08B3119F08FE30E947C38B6
:2076400021E007B600FCFDCF2111CDCE0E94B63B58980C94000080E090E00F900F900F9007
:207660000F900F90DF91CF911F910F91FF90EF90DF90CF90BF90AF900895E0E0F0E083E0B2
:2076800080935700E89507B600FCFDCFE058FF4FE11590E7F907A1F781E180935700E895AA
:2076A0000895DC0180E090E0FC01E40FF51FE491ED93019680389105B9F708951F93CF9341
:2076C000DF93F999FECF222341F023E0FB0120935700E89507B600FCFDCF20E030E011E057
:2076E000EA01C20FD31F8881F901E60FF71FB981A0E0ED01C80FD11D0E0110935700E895DB
:2077000011242E5F3F4F2038310551F785E0FB0180935700E89507B600FCFDCF81E1809301
:207720005700E895DF91CF911F910895CF93DF93C0E0D0E06FEFCE010E94DA3B2196CF3F8B
:2077400083E0D807B9F7DF91CF91089583E390E09093C5008093C40082E08093C00088E197
:207760008093C10086E08093C20008951092C0001092C10086E08093C2001092C500109254
:20778000C4000895DC01CB01FC01F999FECF06C0F2BDE1BDF89A319600B40D9241505040A3
:2077A000B8F70895F999FECF92BD81BDF89A992780B50895262FF999FECF92BD81BDF89A9A
:2077C000019700B4021639F01FBA20BD0FB6F894FA9AF99A0FBE0895DC01CB0103C02D915A
:2077E0000E94F73B41505040D0F70895262FF999FECF1FBA92BD81BD20BD0FB6F894FA9A54
:0E780000F99A0FBE01960895F894FFCF01008B
:040000050000700087
:00000001FF
