:100000000C94E4010C940D020C940D020C940D025E
:100010000C940D020C940D020C940D020C944C06E1
:100020000C940D020C940D020C940D020C940D0214
:100030000C940D020C940D020C940D020C940D0204
:100040000C943E180C9436030C94E0020C949F021E
:100050000C940D020C94D2170C940D020C940D020A
:100060000C940D020C940D020000891112239B3296
:100070002446AD573665BF74488CC19D5AAFD3BE78
:100080006CCAE5DB7EE9F7F88110080193331A2288
:10009000A5562C47B7753E64C99C408DDBBF52AE58
:1000A000EDDA64CBFFF976E802218B301002991368
:1000B0002667AF763444BD554AADC3BC588ED19F38
:1000C0006EEBE7FA7CC8F5D983310A209112180348
:1000D000A7772E66B5543C45CBBD42ACD99E508F18
:1000E000EFFB66EAFDD874C904428D5316619F7018
:1000F0002004A9153227BB364CCEC5DF5EEDD7FCF8
:100100006888E1997AABF3BA85520C4397711E6007
:10011000A1142805B3373A26CDDE44CFDFFD56ECD7
:10012000E9986089FBBB72AA06638F7214409D51E7
:100130002225AB343006B9174EEFC7FE5CCCD5DDB7
:100140006AA9E3B8788AF19B87730E6295501C41C7
:10015000A3352A24B1163807CFFF46EEDDDC54CD97
:10016000EBB962A8F99A708B088481951AA793B6A7
:100170002CC2A5D33EE1B7F04008C919522BDB3A97
:10018000644EED5F766DFF7C899400859BB712A667
:10019000ADD224C3BFF136E0C1184809D33B5A2A77
:1001A000E55E6C4FF77D7E6C0AA583B41886919747
:1001B0002EE3A7F23CC0B5D14229CB38500AD91B57
:1001C000666FEF7E744CFD5D8BB502A49996108727
:1001D000AFF326E2BDD034C1C3394A28D11A580B37
:1001E000E77F6E6EF55C7C4D0CC685D71EE597F4F7
:1001F0002880A1913AA3B3B2444ACD5B5669DF7817
:10020000600CE91D722FFB3E8DD604C79FF516E4E6
:10021000A9902081BBB332A2C55A4C4BD7795E68F6
:10022000E11C680DF33F7A2E0EE787F61CC495D5C6
:100230002AA1A3B03882B193466BCF7A5448DD59D6
:10024000622DEB3C700EF91F8FF706E69DD414C5A6
:10025000ABB122A0B9923083C77B4E6AD5585C49B6
:10026000E33D6A2CF11E780F000103040607090A1A
:100270000C0E0F1112141517181A1B1D1E20222305
:10028000252627292A2C2D2F303233353637393A77
:100290003C3D3E40414244454648494A4B4D4E4F05
:1002A00050525354555657595A5B5C5D5E5F6061BE
:1002B00062636465666768696A6A6B6C6D6E6E6FAF
:1002C00070717172737374757576767778787979E1
:1002D0007A7A7A7B7B7C7C7C7D7D7D7D7E7E7E7E5A
:1002E0007E7F7F7F7F7F7F7F3D3D2053746172746F
:1002F000696E672E0D0A003D3D2056657273696F69
:100300006E20000D0A3D3D20426552544F5320415E
:1003100056522F4D6F62696C696E6B6420544E4368
:10032000310D0A000D0A003D3D200029417264751F
:10033000696E6F0028312E332E302E34373300553E
:100340006E6B6E6F776E206572726F72005365729E
:1003500069616C20726563656976652074696D6595
:100360006F7574005258207061636B657420616210
:100370006F7274005061636B657420435243206553
:1003800072726F7200525820627566666572206FD5
:10039000766572666C6F77005744542074696D659A
:1003A00064206F7574004146534B204144432062E2
:1003B0007566666572206F766572666C6F77004E43
:1003C0006F206572726F720011241FBECFEFD8E0EC
:1003D000DEBFCDBF84B78093140614BE88E10FB68C
:1003E000F89480936000109260000FBE11E0A0E0CE
:1003F000B1E0ECEBF2E302C005900D92A034B1073E
:10040000D9F716E0A0E4B1E001C01D92A331B10715
:10041000E1F70E9416160C945C190C9400001092DF
:10042000C00088E98093C10008951092C10008952A
:10043000FC012285211105C021E0228788EB8093F1
:10044000C10008959A01AB01CA01B901969587953B
:1004500077956795605C7D4B804F9F4F0E94721827
:10046000215031093093C5002093C4000895E2EC77
:10047000F0E0808162957295707F7627607F7627A5
:100480008F7C862B808308959FB7F89484B188620F
:1004900084B99FBF8FB7F894229A8FBF8FB7F89413
:1004A00024988FBF80ED8CBD8CB581608CBD8DB5DF
:1004B0008E7F8DBD08951CBC9FB7F89484B1837C5A
:1004C00084B99FBF089508950895FC018285089519
:1004D0006FB7F894DC011A962C911A9721111DC060
:1004E000E0910C06F0910D06428D538D248D358DD3
:1004F0004217530791F021E01A962C93A28DB38DE9
:1005000080A191A1A817B90751F0A28DB38DCD019B
:100510000196938F828F8C918EBD6FBF0895868DCB
:10052000978D938F828F8C91F7CF2BE0AC01249F16
:10053000C001259F900D11248C5F9E4F08951F923E
:100540000F920FB60F9211242F933F938F939F9387
:10055000AF93BF93EF93FF93E0910A06F0910B06E0
:10056000228D338D848D958D28173907E9F0A28D62
:10057000B38D80A191A1A817B907E1F0A28DB38D29
:10058000CD010196938F828F8C918093C600FF914D
:10059000EF91BF91AF919F918F913F912F910F90CC
:1005A0000FBE0F901F90189588E98093C10010929C
:1005B0000E01EDCF868D978D938F828F8C91E5CF35
:1005C0001F920F920FB60F9211242F933F934F93C8
:1005D0008F939F93AF93BF93EF93FF93E0910A069E
:1005E000F0910B0696A58091C0008871892B86A793
:1005F0004091C60022A133A186A197A128173907EF
:1006000029F124A135A182A193A1019728173907C7
:1006100021F1A4A1B5A14C9324A135A180A591A558
:1006200028173907F1F084A195A1019695A384A319
:10063000FF91EF91BF91AF919F918F914F913F911A
:100640002F910F900FBE0F901F90189524A135A1E8
:1006500080A591A528173907A1F686A5816086A7F0
:10066000E7CF86A197A195A384A3E2CF1F920F9213
:100670000FB60F9211242F933F938F939F93AF93B5
:10068000BF93EF93FF93E0910C06F0910D0622A12A
:1006900033A186A197A12817390709F43FC024A1E7
:1006A00035A182A193A1019728173907A1F08EB532
:1006B000A4A1B5A18C9324A135A180A591A528174B
:1006C0003907F1F184A195A1019695A384A3E09146
:1006D0000C06F0910D06228D338D848D958D281793
:1006E000390729F1A28DB38D80A191A1A817B9076F
:1006F00009F1A28DB38DCD010196938F828F8C91DC
:100700008EBDFF91EF91BF91AF919F918F913F91DE
:100710002F910F900FBE0F901F90189524A135A117
:1007200080A591A52817390709F0B9CFD4CF109229
:100730001901E7CF868D978D938F828F8C91E0CFB3
:1007400086A197A195A384A3E0910C06F0910D06D4
:10075000C2CF9FB7F89483E087BBA0EBB0E01C92B8
:10076000E1EBF0E0108282E08C93808184608083F2
:100770001092B20089EF8093B300E0E7F0E080814F
:100780008E7F80838081826080839FBF0895FC017B
:1007900086A590E00895FC0116A60895CF93DF93F7
:1007A000EC012A8D3B8D8C8D9D8D2817390739F0F2
:1007B0002A8D3B8D8C8D9D8D28173907C9F78FA504
:1007C00098A9DC01ED91FC910284F385E02D099557
:1007D0008111EECF80E090E0DF91CF910895CF932B
:1007E000DF93EC012A8D3B8D8C8D9D8D2817390769
:1007F00039F02A8D3B8D8C8D9D8D28173907C9F7CF
:100800008FA598A9DC01ED91FC910284F385E02D80
:1008100009958111EECF8FA598A9DC01ED91FC918E
:100820000280F381E02D09952FB7F8948CA19DA14A
:100830009BA38AA32FBF2FB7F8948C8D9D8D9B8F80
:100840008A8F2FBF80E090E0DF91CF910895CF9302
:10085000DF93EC012A8D3B8D8C8D9D8D28173907F8
:1008600039F02A8D3B8D8C8D9D8D28173907C9F75E
:100870008FA598A9DC01ED91FC910284F385E02D10
:1008800009958111EECF8FA598A9DC01ED91FC911E
:100890000280F381E02D09952FB7F8948CA19DA1DA
:1008A0009BA38AA32FBF2FB7F8948C8D9D8D9B8F10
:1008B0008A8F2FBF888D998DFC01EE0FFF1FE65F99
:1008C000F94FD183C0830E949502DC0198AB8FA7BA
:1008D00016968D919C91179712962D913C91139796
:1008E0003F8F2E8F3D8F2C8F3B8F2A8F0197820F4A
:1008F000931F99A388A318968D919C91199714968C
:100900002D913C9115973FA32EA33DA32CA33BA370
:100910002AA30197820F931F99A788A7ED91FC91B5
:1009200011970190F081E02DBE01CD0109951AA625
:100930001BA61CA61DA68FA598A9DC01ED91FC9114
:100940000480F581E02D40E056E960E070E0099513
:100950001EA6CE01DF91CF9108958F929F92AF9204
:10096000BF92CF92DF92EF92FF920F931F93CF939C
:10097000DF93FC014115510509F47AC0DB0180E0E9
:1009800090E01DC026A5297B09F065C06FB7F894DB
:10099000C2A1D3A120A531A5C217D30709F46BC00A
:1009A000C2A1D3A19E012F5F3F4F33A322A3288171
:1009B0006FBF01962D938417950709F44CC0CFB7EC
:1009C000F89462A173A124A135A1CFBF6217730768
:1009D000C9F602A513A524A535A5012B022B032BCF
:1009E00009F439C02FB7F89480900E0690900F0646
:1009F000A0901006B09011062FBF0FC0CFB7F8948B
:100A000062A173A124A135A1CFBF6217730709F0BA
:100A1000B9CF26A5297B09F0B5CF6FB7F89400911F
:100A20000E0610910F0620911006309111066FBF2F
:100A3000081919092A093B09C2A4D3A4E4A4F5A4FE
:100A40000C151D052E053F05CCF23FB7F89426A5E1
:100A5000206226A73FBFDF91CF911F910F91FF909A
:100A6000EF90DF90CF90BF90AF909F908F900895C0
:100A700080E090E0F0CF26A137A133A322A3288104
:100A800097CFCF92DF92EF92FF920F931F93CF9366
:100A9000DF93EC017A014115510509F46BC08B011C
:100AA0006A0123C05FB7F894EC8DFD8D40832C8DD7
:100AB0003D8D88A199A12817390709F465C08C8D4F
:100AC0009D8D01969D8F8C8F5FBF8FA598A9DC01AE
:100AD000ED91FC910084F185E02D0995B1E0CB1AF0
:100AE000D108C114D10409F445C0D8014D918D013C
:100AF0005FB7F8942A8D3B8D8E8D9F8D281739070F
:100B000081F12C8D3D8D8A8D9B8D0197F1E0281709
:100B1000390709F0F0E05FBFF11117C0C3CF2C8D8A
:100B20003D8D88A199A128173907C9F08C8D9D8D1D
:100B30002A8D3B8D2150310951E08217930709F02E
:100B400050E0EFBF552309F4ADCFEFB7F8946A8DAD
:100B50007B8D2E8D3F8D6217730741F7E0CF5F2F9E
:100B6000F0CF2C8D3D8D88A199A12817390749F622
:100B7000F1E0D1CFC701DF91CF911F910F91FF908D
:100B8000EF90DF90CF9008958E8D9F8D9D8F8C8FED
:100B90009BCFDC019F968D919C91D097DC01ED91CC
:100BA000FC910480F581E02D0994CF93DF93EC0153
:100BB000CB0121E3DE011D922A95E9F727E234E01B
:100BC0003D832C832FEE33E03F832E832DEA34E0E8
:100BD0003983288321E435E03B832A832EEC33E0FC
:100BE0003B872A8727EC33E03D872C872BEC33E0CB
:100BF0003F872E87FB01EE0FFF1FE65FF94FD18382
:100C0000C083798F688F0E949502DC0198AB8FA713
:100C100016968D919C91179712962D913C91139752
:100C20003F8F2E8F3D8F2C8F3B8F2A8F0197820F06
:100C3000931F99A388A318968D919C911997149648
:100C40002D913C9115973FA32EA33DA32CA33BA32D
:100C50002AA30197820F931F99A788A7ED91FC9172
:100C600011970190F081E02DBE01CD0109951AA6E2
:100C70001BA61CA61DA68FA598A9DC01ED91FC91D1
:100C80000480F581E02D40E056E960E070E00995D0
:100C90001EA6DF91CF9108951F920F920FB60F926B
:100CA00011240F931F932F933F934F935F936F9351
:100CB0007F938F939F93AF93BF93EF93FF93809115
:100CC0000E0690910F06A0911006B09111060196A4
:100CD000A11DB11D80930E0690930F06A0931006E0
:100CE000B0931106A0914C02B0914D028D919C9150
:100CF0001197009701F536C01296ED91FC9113976C
:100D000091838083ED91FC91119712968D919C9126
:100D10001397938382831C96ED91FC911D97CD01CF
:100D20000C960995A0914C02B0914D028D919C9129
:100D300011970097B9F02FB7F89440910E06509193
:100D40000F0660911006709111062FBF18960D9135
:100D50001D912D913C911B97401B510B620B730B06
:100D600077FFCACFFF91EF91BF91AF919F918F9184
:100D70007F916F915F914F913F912F911F910F91B3
:100D80000F900FBE0F901F901895ECE4F2E0A0E5D5
:100D9000B2E0B183A08310924F0210924E021D92D6
:100DA0001C92F0935302E093520210920E0610929E
:100DB0000F0610921006109211060C94A9030F93BF
:100DC0001F93CF93DF931F92CDB7DEB78C01CB017A
:100DD0000983DB011296ED91FC91139741E050E0FD
:100DE000BE016F5F7F4F0995019741F4C8019927B4
:100DF0000F90DF91CF911F910F9108958FEF9FEF8B
:100E0000F7CFCF93DF931F92CDB7DEB7DC01ED9123
:100E1000FC9141E050E0BE016F5F7F4F0995019763
:100E200031F4898190E00F90DF91CF9108958FEF99
:100E30009FEFF9CF2FB7F894FC01ED55FF4F80815C
:100E400091812FBF08952FB7F894FC01ED55FF4F06
:100E5000118210822FBF0895EF92FF920F931F937C
:100E6000CF93DF93FC01EC01CD55DF4F8881998151
:100E700084FD9AC0DF01A154BF4F8C91811109C03C
:100E8000BF01615C7F4FCF018E549F4F0E94D10BF9
:100E900089C08F0106561F4FD8014D915C91CF013B
:100EA00088569F4FDC014D935C9382A193A120A5AE
:100EB00031A58217930719F426A137A105C082A195
:100EC00093A19C012F5F3F4F33A322A3DC012C9100
:100ED0002602900111243595279535952795D8013F
:100EE0002D933C937F01BEE9EB0EF11CD7018D9150
:100EF0009C918F0104561F4FD8018D939C9395951B
:100F00008795840F951F820F931FD7018D939C9314
:100F1000AF0140565F4F21E0181619060CF020E093
:100F2000DA018C91880F822B8C9384A195A1DC012E
:100F30006C9324A135A180A591A52817390719F430
:100F400086A197A103C084A195A1019695A384A32E
:100F5000DA019C91892F86958927DF01AF55BF4F14
:100F600080FF07C08C91803214F48F5F01C08150E4
:100F70008C938C91885F8C938034B4F08F738C93B6
:100F800097708BEF890F61E0833018F0933009F090
:100F900060E0AF01415C5F4F6170CF018E549F4FA5
:100FA0000E94E10B99838883DF91CF911F910F916C
:100FB000FF90EF9008954F925F926F927F928F9281
:100FC0009F92AF92BF92CF92DF92EF92FF920F93D8
:100FD0001F93CF93DF93EC017C0180ECE80EF11CB2
:100FE0008E0101591F4F6E0194ECC90ED11C5E0198
:100FF000E5ECAE0EB11CCE0181549F4F4C0155243F
:1010000053944FB7F8942FA538A989A99AA94FBF2F
:101010002817390709F461C02FB7F894EFA5F8A98C
:101020008DA99EA9E817F90719F48BA99CA904C0FA
:10103000EFA5F8A9CF01019698AB8FA740802FBFED
:10104000612C712C40E89FE720E030E0FE01E20FC8
:10105000F31FE15BFF4F808189170CF4982F48172D
:101060000CF4482F680E711C87FD7A942F5F3F4F58
:101070002032310559F7491BF7014083F80180817F
:10108000FE01E80FF11DE15BFF4F6081CE010E9480
:101090002C07E5E075946794EA95E1F7462D642DF9
:1010A000C6010E941817F5018081F401882311F010
:1010B000508201C01082F801908181E0890F808305
:1010C000FE01E90FF11DE15BFF4F461840828032BF
:1010D00009F097CFF801108292CFDF91CF911F9145
:1010E0000F91FF90EF90DF90CF90BF90AF909F90C7
:1010F0008F907F906F905F904F9008952F923F92C6
:101100004F925F926F927F928F929F92AF92BF9217
:10111000CF92DF92EF92FF920F931F93CF93DF93C3
:1011200000D000D0CDB7DEB79C838B836B015A0112
:101130000E94DB077601AC0CBD1C0B811C81015C9D
:101140001F4F8B809C8081E4880E911CAB81BC81F9
:10115000AB5BBF4FBA83A9832B803C80B3E42B0EDB
:10116000311CEA14FB04D1F4C7018C199D090F90BE
:101170000F900F900F90DF91CF911F910F91FF90E3
:10118000EF90DF90CF90BF90AF909F908F907F9027
:101190006F905F904F903F902F9008954FB7F894C5
:1011A000D8012D913C91F401808191814FBF281786
:1011B0003907D1F28FB7F89440900E0650900F0681
:1011C00060901006709011068FBF4FB7F894F80129
:1011D00020813181D4018D919C914FBF281739070F
:1011E000C9F48B819C810E94DB072FB7F894809112
:1011F0000E0690910F06A0911006B09111062FBF18
:1012000084199509A609B709181619061A061B06A6
:10121000E4F6AACF2FB7F8940190F081E02DA981D0
:10122000BA818D919C91E817F90729F4D1018D912C
:101230009C91D80106C0D801ED91FC911197CF0186
:10124000019611969C938E9380812FBFF701819315
:101250007F0187CFEF92FF920F931F93CF93DF937E
:10126000EC01C058DF4F8C0100591F4F7C0125EA6B
:10127000E20EF11C5FB7F894288139818C819D8141
:101280002817390739F42A813B818E819F812817DD
:10129000390769F08A819B81288139812150310980
:1012A00041E08217930709F040E0842F01C081E0FC
:1012B0005FBF80FD1FC0B801C7010E947F0C8F3F38
:1012C000C9F04FB7F894EA81FB8180832A813B8182
:1012D0008E819F812817390729F48C819D819B83FA
:1012E0008A8306C02A813B812F5F3F4F3B832A833D
:1012F0004FBFC0CFDF91CF911F910F91FF90EF9023
:1013000008950F931F93CF93DF93EC018C010E553B
:101310001F4FF8018081882321F0CE010E942A0905
:10132000F8CF80E090E0DF91CF911F910F91089569
:101330004F925F926F927F928F929F92AF92BF92E5
:10134000CF92DF92EF92FF920F931F93CF93DF9391
:101350008C016B013A017B01660E771EEC01C059CE
:10136000DF4F55245394442443945C0182EAA80E31
:10137000B11CFAE08F2E912CE614F70409F454C046
:101380004FB7F894288139818C819D8128173907BE
:1013900039F42A813B818E819F812817390761F0BA
:1013A0002A813B8188819981019751E0281739076B
:1013B00009F050E0852F01C081E04FBF80FF04C0DD
:1013C000C8010E942A09DCCFF70181917F014FB744
:1013D000F894EA81FB8180832A813B818E819F8101
:1013E0002817390719F48C819D8103C08A819B815C
:1013F00001969B838A834FBFC8010E942A09F50189
:1014000080818111B9CFF80191A280A2178E168E2A
:10141000F50150822A9A4092120680917A008771D3
:1014200080937A0055BCA8CFC7018C199D09DF9124
:10143000CF911F910F91FF90EF90DF90CF90BF90D1
:10144000AF909F908F907F906F905F904F90089596
:10145000CF93DF93DC015C968C915C97811159C02E
:10146000FD01ED55FF4F8081918184FD1CC0FD0180
:10147000E058FF4F208131818281938128173907FD
:1014800019F1C081D18186819781C817D90719F4D4
:101490008481958104C0C081D181CE010196918360
:1014A0008083888114C0808191818031910551F0C1
:1014B000419761F0FD01E056FF4F808191E089275F
:1014C000808305C080E003C08FEF01C081E05D969E
:1014D0008C935D9794E35C969C935C978F3F29F087
:1014E000813089F48AE090E010C02A9810921206A8
:1014F00015BC80917A00886E80937A00AE55BF4FFC
:101500001C9280E03EC082E190E091969C938E9385
:1015100090979096ED91FC9191975E968D919C910C
:101520005F97E80FF91F9F0131705F963C932E93F0
:101530005E975C968C915C9781505C968C935C97DF
:10154000AE53BF4F4C91220F232F221F330B3195E7
:10155000EF77FF2720FF07C087EE92E08E1B9F0BDF
:10156000FC01849104C0E859FD4F84910000849FE0
:10157000F001112421FF03C08FE78F1B02C080E818
:101580008F0FDF91CF9108958B559F4F0C94580D7D
:101590008B559F4F0C945B0D1F93CF93DF93EC0102
:1015A0001FB7F894772767FD7095FC01ED55FF4F45
:1015B00071836083FC01E056FF4F10820E942A096C
:1015C000FE01EE55FF4F808181110EC01C8E1F8ED3
:1015D0001E8E81E080832A9A8093120690917A0071
:1015E000977190937A0085BD1FBFDF91CF911F91B6
:1015F0000895FC01ED55FF4F11821082FC01E05669
:10160000FF4F108208950F931F93CF93DF93EC0148
:10161000CB012EECDE011D922A95E9F7798F688FB8
:101620005B8F4A8F9E01265D3F4F3FA32EA33DA3B4
:101630002CA33BA32AA39E01225D3F4F39A728A7D5
:101640009E01295B3F4FFE01ED5BFF4F31832083FD
:10165000FE01EF5BFF4F31832083FE01FF96318354
:101660002083FE01EB5BFF4F9E01225B3F4F3183E6
:1016700020839E01295C3F4F3CAB2BAB3AAB29AB9F
:1016800038AB2FA79E01225C3F4F3EAB2DABFE0136
:10169000E15BFF4F10A220E2DF011D922A95E9F7DE
:1016A00024E030E0ECA1FDA110826CA17DA148A551
:1016B00059A56417750719F44EA15FA104C04CA188
:1016C0005DA14F5F5F4F5DA34CA3215031092115F0
:1016D000310541F79E0128583F4FFE01E059FF4F69
:1016E0003583248333832283318320839E012158D1
:1016F0003F4F378326839E0128573F4FFE01E05816
:10170000FF4F3583248333832283318320839E01DB
:1017100029563F4F37832683BE010E94AA1783E8CC
:1017200084BD81E085BD229A80936E0054985C98B8
:1017300055985D98569A57985F98CE018E549F4F52
:101740000E945E0D8E010B551F4FC8010E945E0D59
:101750006DE2C8010E94580D68E0C8010E945B0D4F
:1017600088E999E09B838A838EE798E09983888350
:1017700081E899E09B878A878AE197E09D878C873B
:1017800083E297E09F878E878AE090E099A388A301
:10179000CE018C539F4FDF91CF911F910F910C94ED
:1017A0000B17FC0181E083871582DB0112968D9176
:1017B0009C91139711969C938E93108283E090E0F6
:1017C0000895FC01DA01868190E0862781709927CF
:1017D00021E08227817066839081882329F09830E8
:1017E00058F59F5F908328C0973068F081E0838729
:1017F000158212968D919C91139711969C938E93BE
:10180000108283E07AC01082963099F48385833009
:1018100049F012968D919C91139711969C938E93FB
:1018200080E001C084E090E022E0238715821082EE
:101830000895953009F45EC094819695882311F03F
:1018400040E801C040E0492B448385818F5F858358
:10185000883008F44FC015828385823011F483E00C
:1018600083878385833009F045C02D913C91119782
:1018700014968D919C9115972817390759F4129653
:101880002D913C91139716968D919C91179728173F
:10189000390779F012962D913C9113978D919C9177
:1018A0001197019751E02817390709F050E0852F6B
:1018B00001C081E080FD20C01296ED91FC9113974C
:1018C000408312962D913C91139716968D919C9181
:1018D00017972817390729F414968D919C9115971D
:1018E00005C012968D919C911397019613969C9327
:1018F0008E93129780E001C081E090E00895CF932D
:10190000DF93FC01DB018081853051F483858B7F7F
:10191000823031F0868191E0892786831082C2C0AF
:101920008581883008F49EC0158283858330B1F1AB
:1019300030F4813009F480C0823051F093C085309A
:1019400009F45BC008F451C0863009F45FC08AC056
:1019500081818150818381117DC0CD91DC9111976E
:1019600016968D919C911797C817D90729F414964C
:101970008D919C91159705C0CD91DC911197CE0169
:10198000019611969C938E93888184838FEF9FEFAD
:10199000908787831582108283E025C0CD91DC91EA
:1019A000119716968D919C911797C817D90729F40E
:1019B00014968D919C91159705C0CD91DC9111974E
:1019C000CE01019611969C938E93888184834D91CC
:1019D0005C91119712968D919C9113974817590716
:1019E00009F040C084E083873DC08781908581876E
:1019F00092878095848385E0F6CF82858095848365
:101A000086E0838783818F5F81832CC04D915C91B9
:101A1000119712968D919C9113974817590721F0B1
:101A200082E0838781E015C08181815081838111AB
:101A300011C081E083870EC04D915C911197129681
:101A40008D919C9113974817590739F082E083874D
:101A5000828181838EE7848305C088E085838FEF50
:101A60009FEF23C08481282F217030E080FF03C0C6
:101A700090819F5F90838695848385818F5F858326
:101A800047815085CA01969587954227532740FF85
:101A900004C048E0842744E8942790878783232B59
:101AA00009F438CF8681817090E0DF91CF9108955D
:101AB000FC0162830895FC0163830895FC0181E0C9
:101AC00083871082158214860895DC01A255BD4FCC
:101AD000FC01E355FD4F2C913081230FFC01E155B2
:101AE000FD4F3081230FFC01E055FD4F3081230F66
:101AF000FC01EF54FD4F3081230FFC01EE54FD4FEC
:101B00003081230FFC01ED54FD4F3081230FDC01A8
:101B1000A455BD4FFC01E555FD4F8C919081890F77
:101B2000280F822F80950895AF92BF92CF92DF92B7
:101B3000EF92FF920F931F93CF93DF9300D0CDB717
:101B4000DEB78C01D62E79015C0186E6A81A8DEFEE
:101B5000B80AF5016081718180EC90E049835A8375
:101B60000E94DF06F501608171818D2D90E00E9459
:101B7000DF06F801E856FD4FC080D1804981042F6F
:101B80005A81152FE00EF11E0E151F0559F1C601E1
:101B90000E94DB07F80181918F01803C79F08B3D39
:101BA000D1F4F501608171818BED90E00E94DF0638
:101BB000F501608171818DED90E011C0F5016081CA
:101BC00071818BED90E00E94DF06F50160817181EB
:101BD0008CED90E004C0F5016081718190E00E947D
:101BE000DF06D2CFF5016081718180EC90E00F902B
:101BF0000F90DF91CF911F910F91FF90EF90DF90A9
:101C0000CF90BF90AF900C94DF060F931F93CF93AC
:101C1000DF9300D0CDB7DEB78C018CE08983F8016B
:101C2000E055FD4F80818A8322E030E0AE014F5FB6
:101C30005F4F66E0C8010E94940DF801E656FD4F23
:101C400080819181DC011A96ED91FC911B97099599
:101C50000F900F90DF91CF911F910F9108950F93E7
:101C60001F93CF93DF9300D0CDB7DEB78C018DE00B
:101C70008983F801E856FD4F0190F081E02DEF5384
:101C8000FF4F80818A8322E030E0AE014F5F5F4FDB
:101C900066E0C8010E94940DF801E656FD4F808170
:101CA0009181DC011A96ED91FC911B9709950F909B
:101CB0000F90DF91CF911F910F9108950F931F9374
:101CC000CF93DF9300D0CDB7DEB78C018EE0898350
:101CD000F801EE54FD4F80818A8322E030E0AE01AE
:101CE0004F5F5F4F66E0C8010E94940DF801E65611
:101CF000FD4F80819181DC011A96ED91FC911B973B
:101D000009950F900F90DF91CF911F910F9108953A
:101D10000F931F93CF93DF9300D0CDB7DEB78C0125
:101D200081E28983F801E555FD4F80818A8322E0B5
:101D300030E0AE014F5F5F4F66E0C8010E94940D36
:101D4000F801E656FD4F80819181DC011A96ED91F4
:101D5000FC911B9709950F900F90DF91CF911F91E8
:101D60000F9108950F931F93CF93DF9300D0CDB7BA
:101D7000DEB78C0182E28983F801E455FD4F808152
:101D80008A8322E030E0AE014F5F5F4F66E0C8011A
:101D90000E94940DF801E656FD4F80819181DC018F
:101DA0001A96ED91FC911B9709950F900F90DF917A
:101DB000CF911F910F9108950F931F93CF93DF93AE
:101DC00000D0CDB7DEB78C0183E28983F801E355FB
:101DD000FD4F80818A8322E030E0AE014F5F5F4F8C
:101DE00066E0C8010E94940DF801E656FD4F80811F
:101DF0009181DC011A96ED91FC911B9709950F904A
:101E00000F90DF91CF911F910F9108950F931F9322
:101E1000CF93DF9300D0CDB7DEB78C0185E2898305
:101E2000F801E155FD4F80818A8322E030E0AE0168
:101E30004F5F5F4F66E0C8010E94940DF801E656BF
:101E4000FD4F80819181DC011A96ED91FC911B97E9
:101E500009950F900F90DF91CF911F910F910895E9
:101E60000F931F93CF93DF9300D0CDB7DEB78C01D4
:101E700081E18983F801ED54FD4F80818695817061
:101E80008A8322E030E0AE014F5F5F4F66E0C80119
:101E90000E94940DF801E656FD4F80819181DC018E
:101EA0001A96ED91FC911B9709950F900F90DF9179
:101EB000CF911F910F9108950F931F93CF93DF93AD
:101EC00000D01F92CDB7DEB78C018EE789838FE0FB
:101ED0008A8381E08B8322E030E0AE014F5F5F4F69
:101EE00066E0C8010E94940DF801E656FD4F80811E
:101EF0009181DC011A96ED91FC911B9709950F9049
:101F00000F900F90DF91CF911F910F9108950F9334
:101F10001F93CF93DF9300D0CDB7DEB78C0184E061
:101F20008983F801E856FD4F0190F081E02DE054DF
:101F3000FF4F80818A8322E030E0AE014F5F5F4F28
:101F400066E0C8010E94940DF801E656FD4F8081BD
:101F50009181DC011A96ED91FC911B9709950F90E8
:101F60000F90DF91CF911F910F910895CF93DF9341
:101F7000EC010E94650DFE01EC54FD4F80834AE0A8
:101F800050E060E070E0CE0185559D4FDF91CF912C
:101F90000C941D19AF92BF92CF92DF92EF92FF92F5
:101FA0000F931F93CF93DF938C015B017A01EC01B8
:101FB000C656DD4F6881798180EC90E00E94DF0693
:101FC0006881798186E090E00E94DF06F801E8569A
:101FD000FD4FC080D1808501EA0CFB1C0E151F054A
:101FE00039F1C6010E94DB07F8018491803C69F059
:101FF0008B3DB1F4688179818BED90E00E94DF0622
:10200000688179818DED90E00EC0688179818BEDDA
:1020100090E00E94DF06688179818CED90E003C03A
:102020006881798190E00E94DF060F5F1F4FD6CF55
:102030006881798180EC90E0DF91CF911F910F91C1
:10204000FF90EF90DF90CF90BF90AF900C94DF06A1
:10205000CF93DF93EC018BE293E00E940419AC0173
:102060006BE273E0CE010E94CA0FC656DD4F888135
:102070009981DC011A96ED91FC911B97DF91CF912C
:102080000994CF93DF93EC0184E393E00E94041959
:10209000AC0164E373E0CE010E94CA0FC656DD4F67
:1020A00088819981DC011A96ED91FC911B97DF9153
:1020B000CF910994CF92DF92EF92FF920F931F93EB
:1020C000CF93DF93EC01FC01E356FD4F8081873015
:1020D00009F4B4C08E0108561D4FD8018D919C9112
:1020E000DC011C96ED91FC911D97099584FDA6C01D
:1020F0007E01B6EBEB1ABEEFFB0AF80180819181FD
:102100000E9401078F3FFFEF9F0791F0F7012081A9
:1021100031812A34F1E03F0780F7A9014F5F5F4F1B
:10212000D7014D935C93FE01E20FF31F8083E5CF4F
:10213000D8018D919C91DC011C96ED91FC911D972D
:1021400009958230910509F44EC024F4019709F4F1
:1021500059C074C08330910509F45CC0049709F03C
:102160006DC07E01B6EBEB1ABEEFFB0AF7012081D2
:1021700031812A30310550F1AE01420F531FDE018B
:102180008FEF9FEFA417B50781F0692F7727ED91A7
:102190006C01CE26F601FF27EE0FFF1FE859FF4F17
:1021A0008591949186279727EDCF883B904F21F01A
:1021B00084E0809315060AC022503109D7012D937F
:1021C0003C93AE0160E0CE010E94940DF801808145
:1021D0009181DC011E96ED91FC911F970995F70105
:1021E000118210822BC084E080931506D8018D9156
:1021F0009C91DC011E96ED91FC911F970995C65BA1
:10220000DE4F1AC0C65BDE4F888199810A9758F06D
:1022100083E007C0C65BDE4F888199810A9718F07A
:1022200085E080931506F80180819181DC011E967E
:10223000ED91FC911F97099519821882DF91CF913A
:102240001F910F91FF90EF90DF90CF9008952F9204
:102250003F924F925F926F927F928F929F92AF9236
:10226000BF92CF92DF92EF92FF920F931F93CF9383
:10227000DF93CDB7DEB761970FB6F894DEBF0FBE20
:10228000CDBF8C0182E880931306680123E6C21A51
:102290002DEFD20AD6018C91863009F0ABC086E8CA
:1022A00080931306F801E155FD4F8081811177C0BD
:1022B00087E8809313067801BEE5EB1ABDEFFB0AB1
:1022C000F70140815181628173814115510561059A
:1022D000710539F12FB7F89480910E0690910F0691
:1022E000A0911006B09111062FBFF801E355FD4FE4
:1022F0002081841B950BA60BB70BFAE02F9FA00142
:102300001124662757FD6095762F84179507A60739
:10231000B7070CF4D2C3D7011D921D921D921C92D7
:102320001397F801E856FD4F0190F081E02DE1543C
:10233000FF4F8081882331F088E8809313060E9444
:10234000F418BBC389E8809313060E94F418A92EE1
:10235000B12CA826F801E455FD4F808190E0A81625
:10236000B906E8F08AE8809313062FB7F8948091B5
:102370000E0690910F06A0911006B09111062FBF86
:10238000F70180839183A283B383892B8A2B8B2BC4
:1023900009F093C381E090E0A0E0B0E05DC3580194
:1023A000B8E6AB1ABDEFBB0AF501808191817801D7
:1023B000FAE6EF1AFDEFFF0AD7014D915C91DC01BF
:1023C0001296ED91FC911397B801645B7E4F0995CD
:1023D0008CE880931306F50180819181DC011A96C7
:1023E000ED91FC911B970995F7011182108285E010
:1023F000D6018C9383E880931306980126563D4FAF
:102400003C832B83380132E6631A3DEF730A58018F
:102410004AE6A41A4DEFB40AC80186559D4F4C01F7
:10242000D801A456BD4FBE83AD83F801E45BFE4FD7
:10243000FA87E987980123553D4F3C872B87C801D0
:1024400081559D4F9E878D87D801A255BD4FB88776
:10245000AF837801B8E6EB1ABDEFFB0AF801E35B46
:10246000FE4FF88BEF87AB81BC818D919C910E94D0
:1024700001078F3FBFEF9B0709F4BAC2A89524E874
:10248000209313062FB7F89440910E0650910F0633
:1024900060911006709111062FBFD3014D935D938B
:1024A0006D937C931397F6012081243009F47DC04D
:1024B00030F4213049F0223009F451C0D4CF253016
:1024C00009F4A1C0273079F6803C910539F482E007
:1024D000D6018C93F501118210823EC08B3191059B
:1024E00031F4F401808180FD37C08F5F62C2833593
:1024F000910591F5D4018C9180FF2EC08F5F8C9354
:10250000EB81FC81608171818FE390E00E94DF06A6
:10251000AB81BC818D919C91DC011A96ED91FC916F
:102520001B970995F4018081883009F09CCFF894BD
:1025300088E10FB6F89480936000109260000FBE9F
:1025400028E088E190E00FB6F894A89580936000A9
:102550000FBE20936000FFCFD4011C9284CF803C3B
:10256000910509F480CF9C01207F3327232B11F0A4
:1025700081E01EC28F70AD81BE818C938FB7F894BD
:1025800020900E0630900F064090100650901106D5
:102590008FBFC1010E94F918F801EA55FD4F208252
:1025A00031824282538285E003C28C3D910531F035
:1025B0008D3D910529F48BED90E002C080EC90E018
:1025C000D5012D913C911197A9014F5F5F4F4D931C
:1025D0005C93200F311FF901E45BFE4F80832FB71E
:1025E000F89480910E0690910F06A0911006B0917C
:1025F00011062FBFF30180839183A283B38385E00B
:10260000D6018C9330CF8B3D910511F484E0D0C17D
:10261000803C910541F0D5012D913C912A34B1E0E7
:102620003B0709F0C8C1ED81FE818081882309F450
:10263000A4C192E0D6019C93E985FA85608183303C
:1026400001F148F4813069F0823009F092C1F8015B
:10265000E455FD4F18C0853051F1D0F0863059F166
:1026600088C1F801E555FD4F6083C801698B0E9460
:10267000B60F698970E0D7018D919C910E94C40AC0
:1026800078C1EB85FC856083C8010E94B60F71C1DB
:10269000AF81B8856C93C801698B0E94B60F6989B8
:1026A00070E0F701808191810E94C80A62C1AD8506
:1026B000BE856C93E9CFEF85F88930806E3009F4E0
:1026C000F8C008F058C0673009F4D7C0C8F56330C7
:1026D00009F4BCC098F4613009F4ABC0623009F071
:1026E00048C1F801EF54FD4F3082C8010E94B60F77
:1026F000D701ED91FC91EF53FF4FB4C0643009F462
:10270000B3C0653009F035C1D7018D919C910E940D
:10271000F90AC8010E94870F87E0F60180832FB76E
:10272000F89480910E0690910F06A0911006B0913A
:1027300011062FBFF30180839183A283B38319C154
:102740006A3009F4A7C040F4683009F498C06930D1
:1027500009F00FC162E198C06C3009F4A1C06D307E
:1027600009F007C1F701808191810E94F90AC8012F
:102770000E942F0EFEC0643209F4B6C0E8F4613244
:1027800009F4A0C050F4603109F4E0C0613109F0EF
:10279000F0C0C8010E94300FECC0623209F49BC047
:1027A000633209F0E6C0F701808191810E94F90A45
:1027B000C8010E94DC0EDDC0693209F4BEC078F4A5
:1027C000653209F4B1C0683209F0D3C0D7018D91E8
:1027D0009C910E94F90AC8010E944110CAC06E373C
:1027E00009F4BFC06F3709F0C4C0F701808191813F
:1027F0000E94F90AC8010E942810C8010E944110D5
:10280000C8010E94880EC8010E94B20EC8010E9431
:10281000DC0EC8010E94060FC8010E94050EC80107
:102820000E945E0EC8010E942F0EC8010E94300F48
:102830009DC0F801E055FD4F3082C8010E94B60FDF
:10284000D701ED91FC91EE53FF4F0CC0F801EE540F
:10285000FD4F3082C8010E94B60FD701ED91FC9167
:10286000ED53FF4F308285C0F701808191810E9436
:10287000F90AC8010E94870F7CC061E105C060E1D0
:10288000F7018081918103C0D7018D919C910E94B5
:10289000CC0A6FC0F701808191810E94F90A69C05A
:1028A000D7018D919C910E94F90AC8010E94050EE2
:1028B00060C0D7018D919C910E94F90AC8010E94C5
:1028C0005E0E57C0F701808191810E94F90AC8010C
:1028D0000E94880E4EC0D7018D919C910E94F90AEA
:1028E000C8010E94B20E45C0D7018D919C91698BA1
:1028F0000E94F90A69896983EF81F88580818A835A
:1029000022E030E0AE014F5F5F4F66E0C8010E94F9
:10291000940DAB81BC818D919C91DC011A96ED9157
:10292000FC911B97099525C0F701808191810E9438
:10293000F90AC8010E94060F1CC0F701808191812D
:102940000E94F90AC8010E94281013C0F801ED5432
:10295000FD4F8081332011F0826001C08D7F808324
:1029600093CED7018D919C910E94F90AC8010E94D3
:102970005C0FD5011D921C9276CD87E980931306DA
:10298000F501808191810A9780F086E0D6018C93D1
:102990002FB7F89480910E0690910F06A091100623
:1029A000B09111062FBFF30157C01182108282E04F
:1029B000F601808358CDA9014F5F5F4FD5014D933C
:1029C0005C93200F311FF901E45BFE4F80832FB72A
:1029D000F89480910E0690910F06A0911006B09188
:1029E00011062FBFF30180839183A283B3833BCD74
:1029F00085E880931306F6018081873091F52FB723
:102A0000F89480910E0690910F06A0911006B09157
:102A100011062FBF7801F2E6EF1AFDEFFF0AF7016A
:102A20004081518162817381841B950BA60BB70B8A
:102A300085369105A105B105B4F0C8010E94870F44
:102A40002FB7F89480910E0690910F06A091100672
:102A5000B09111062FBFF70180839183A283B383C6
:102A60002CC0813051F12FB7F89480910E069091CF
:102A70000F06A0911006B09111062FBFF801E25683
:102A8000FD4F4081518162817381841B950BA60BA0
:102A9000B70B813D9740A105B1057CF0F801EA56DE
:102AA000FD4F80819181892B29F086E08093150666
:102AB0001182108281E0D6018C9361960FB6F89452
:102AC000DEBF0FBECDBFDF91CF911F910F91FF9061
:102AD000EF90DF90CF90BF90AF909F908F907F90BE
:102AE0006F905F904F903F902F9008955F926F92FC
:102AF0007F928F929F92AF92BF92CF92DF92EF928E
:102B0000FF920F931F93CF93DF933C0185EB92E0ED
:102B1000F3019C01119221503040E1F7E301C856C6
:102B2000DD4F79836883F301E656FD4F518340837F
:102B3000F301E356FD4F552453945082830105550C
:102B40001D4F4AE050E060E070E0C8010E940D199E
:102B5000C3010E94650DF301EC54FD4F9081F30118
:102B6000E255FD4F4F01930120553D4F5901F301AF
:102B7000EF54FD4F6F0193012E543D4F790198178B
:102B800011F182E3F8018083F301E455FD4F80E405
:102B90008083F301E355FD4F8AE08083F401508286
:102BA000F301E155FD4F108280E8F501808382E05A
:102BB000F6018083F9018083F301ED54FD4F10820B
:102BC000C3010E94B60FF801608170E0888199818D
:102BD0000E94C40AF401608170E0888199810E949A
:102BE000C80AF5018081E881F981EE53FF4F8083A7
:102BF000F6018081E881F981EF53FF4F8083F7016F
:102C00008081E881F981ED53FF4F8083DF91CF917F
:102C10001F910F91FF90EF90DF90CF90BF90AF90FA
:102C20009F908F907F906F905F90089578940E940E
:102C3000C50660E070E089E095E00E94D50540E0BF
:102C400056E960E070E089E095E00E94C905C3E0C4
:102C5000D3E0CE01FE012491222351F02196FC0104
:102C6000849169E075E090E00E94DF06019689F7A3
:102C7000C7EFD2E0CE01FE012491222351F021962C
:102C8000FC01849169E075E090E00E94DF06019606
:102C900089F7C5E3D3E0CE01FE012491222351F050
:102CA0002196FC01849169E075E090E00E94DF06C6
:102CB000019689F7C4E2D3E0CE01FE0124912223DC
:102CC00051F02196FC01849169E075E090E00E944A
:102CD000DF06019689F710921306C8EED2E0CE0106
:102CE000FE012491222351F02196FC01849169E098
:102CF00075E090E00E94DF06019689F7C2E0C0937C
:102D0000150640E050E060E070E08AE395E00E9444
:102D1000030B81E08093130649E055E06AE375E018
:102D200084E592E00E947615C093130628E288E1BC
:102D300090E00FB6F894A895809360000FBE2093A2
:102D4000600082E0D82E93E0E92E24E0F22E05E028
:102D500016E080911506823009F443C08091070582
:102D600081FD03C0D09215063CC08AE395E00E9425
:102D7000DB07C7E2D3E0CE01FE012491222351F00C
:102D80002196FC01849169E075E090E00E94DF06E5
:102D9000019689F7809115060E949C17EC01CE01DF
:102DA000FE012491222351F02196FC01849169E0D7
:102DB00075E090E00E94DF06019689F7C4E2D3E057
:102DC000CE01FE012491222309F4CCCF2196FC01EF
:102DD000849169E075E090E00E94DF06019681F73A
:102DE000C1CFE09213068AE395E00E94DB07F092E0
:102DF000130684E592E00E945A100093130684E5BE
:102E000092E00E942711109313068AE395E00E9436
:102E10002A09A8959ECFFC018AE0DF011D928A95C0
:102E2000E9F782E0838386E084838CE085830895DC
:102E3000CF92DF92EF92FF920F931F93FC0182815A
:102E40008F5F8283C12CD12C7601C39446171CF06E
:102E5000C12CD12C76010681178120853185000F88
:102E6000111F221F331F0C291D292E293F290683DC
:102E70001783208731878F3139F01F910F91FF9091
:102E8000EF90DF90CF9008951282B901A801440F0E
:102E9000551F661F771F40275127622773278FE131
:102EA00090E0B0E0A1E008C0AF5F440F551F661F7F
:102EB000771F0197009771F077FFF6CFA150A330ED
:102EC00098F1BF5FA0E0440F551F661F771F019761
:102ED000009791F7A53008F0BF5F8081880F80834D
:102EE00093819B1718F1012B022B032BF9F08823F8
:102EF00001F190E021E0290F87FF292F922F880F01
:102F0000C9F784818217A8F48181882311F0815048
:102F1000818316821782108611861F910F91FF9070
:102F2000EF90DF90CF900895A0E0BFCF81608083C5
:102F3000E0CF85818183EDCF873048F4E82FF0E042
:102F4000EE0FFF1FEE5CFE4F8081918108958FE3AD
:102F500093E008957093090660930806982F906493
:102F600090937C0097B121E030E001C0220F8A9558
:102F7000EAF7322F3095932397B988B1832388B924
:102F8000EEE7F0E08081822B8083EAE7F0E087E0E3
:102F90008083ABE7B0E08C91887F8C938081886ED2
:102FA000808308951F920F920FB60F9211242F93D2
:102FB0003F934F938F939F93AF93BF93EF93FF9361
:102FC000E0910806F091090627A530A983A994A9E4
:102FD0002817390739F421A932A985A996A92817F4
:102FE000390761F021A932A987A590A9019741E08D
:102FF0002817390709F040E0842F01C081E080FFE5
:1030000004C081E0809315062BC0809178009091D8
:1030100079009250DF01AF53BF4F0C9002C09595DD
:1030200087950A94E2F78038910514F08FE790E0D5
:10303000A1A9B2A980382FEF920714F480E89FEF7E
:103040008C9321A932A985A996A92817390719F4C3
:1030500083A994A903C081A992A9019692AB81ABDF
:10306000FF91EF91BF91AF919F918F914F913F91C0
:103070002F910F900FBE0F901F9018951F920F92D7
:103080000FB60F9211242F933F934F935F936F933B
:103090007F938F939F93AF93BF93EF93FF93809111
:1030A0000806909109060E94280A87BDFF91EF91BA
:1030B000BF91AF919F918F917F916F915F914F9150
:1030C0003F912F910F900FBE0F901F9018950E9467
:1030D0009418A59F900DB49F900DA49F800D911DF5
:1030E00011240895A1E21A2EAA1BBB1BFD010DC0DD
:1030F000AA1FBB1FEE1FFF1FA217B307E407F507A8
:1031000020F0A21BB30BE40BF50B661F771F881F83
:10311000991F1A9469F760957095809590959B0119
:10312000AC01BD01CF010895A29FB001B39FC001C2
:10313000A39F700D811D1124911DB29F700D811DE3
:103140001124911D08958F929F92AF92BF92CF92BA
:10315000DF92EF92FF92CF93DF93EC016881798148
:103160008A819B81611571058105910521F464E2D5
:1031700079ED8BE597E02DE133EF41E050E00E94DF
:103180003D1949015A019B01AC01A7EAB1E40E9433
:1031900067186B017C01ACEEB4EFA50194010E94AD
:1031A0003819C60ED71EE81EF91EF7FE06C081E0CC
:1031B000C81AD108E10880E8F80AC882D982EA82F0
:1031C000FB82E894D7F8EE24FF24C601DF91CF916B
:1031D000FF90EF90DF90CF90BF90AF909F908F9037
:1031E00008950E94A318089580E091E00E94A3181A
:1031F0000895A0E0B0E08093000190930101A093B6
:103200000201B09303010895FC0105900020E9F745
:10321000809590958E0F9F1F0895DC01CB01FC01D6
:10322000F999FECF06C0F2BDE1BDF89A319600B41F
:103230000D9241505040B8F70895DC01CB0103C016
:103240002D910E94281941505040D0F70895262F03
:10325000F999FECF1FBA92BD81BD20BD0FB6F8947B
:10326000FA9AF99A0FBE01960895B7FF0C94671861
:103270000E946718821B930B0895052E97FB1EF47E
:1032800000940E94541957FD07D00E94721807FC41
:1032900003D04EF40C9454195095409530952195D7
:1032A0003F4F4F4F5F4F0895909580957095619572
:0C32B0007F4F8F4F9F4F0895F894FFCF81
:1032BC000100000026014802480104000001001A28
:1032CC000144014001040004000044025B0263025B
:1032DC006402680265020F0215022202370218020C
:1032EC006502BF03A60398038503740364034D03AF
:00000001FF
