:107800000C94343C0C94513C0C94513C0C94513CE1
:107810000C94513C0C94513C0C94513C0C94513CB4
:107820000C94513C0C94513C0C94513C0C94513CA4
:107830000C94513C0C94513C0C94513C0C94513C94
:107840000C94513C0C94513C0C94513C0C94513C84
:107850000C94513C0C94513C0C94513C0C94513C74
:107860000C94513C0C94513C11241FBECFEFD8E036
:10787000DEBFCDBF11E0A0E0B1E0E2E2FFE702C071
:1078800005900D92A230B107D9F711E0A2E0B1E066
:1078900001C01D92A538B107E1F70E94483D0C9444
:1078A0008F3F0C94003C909100019230F0F7809152
:1078B000C00087FFFACF81E0809300018091C6006D
:1078C000089590910001923058F48093C600809101
:1078D000C00086FFFCCF8091C00080648093C00010
:1078E00008950E94533C8F930E94533C9F91882F90
:1078F0000895AF92BF92CF92DF92EF92FF920F93D3
:107900001F93CF93DF931F92CDB7DEB77C015A014F
:10791000A89542E0C42E41E0D42E00E010E00E1500
:107920001F0528F469830E94533C698101C08FEFD1
:10793000F60181936F010F5F1F4F0038110579F732
:107940006534B1F4F50160817181A70182E091E0B5
:107950000E94773FF50100811181228133810E0D54
:107960001F1D211D311D00831183228333831EC0FF
:107970006634F1F4F50180819181A281B381F6949E
:10798000E794AC01BD014E0D5F1D611D711D40836B
:10799000518362837383BC01CD01660F771F881FFB
:1079A000991F21E042E051E00E94893E8DE001C034
:1079B0008FE30F90DF91CF911F910F91FF90EF9088
:1079C000DF90CF90BF90AF900895EF92FF920F930A
:1079D0001F93CF93DF937C01EA016534B1F4688192
:1079E0007981AC0182E091E00E944D3F88819981CC
:1079F000AA81BB818E0D9F1DA11DB11D8883998316
:107A0000AA83BB83C2E0D1E032C06634D1F588815D
:107A10009981AA81BB81880F991FAA1FBB1F8883E8
:107A20009983AA83BB83A2E0B1E0C7018E5F9E4F1A
:107A3000E881F981E491ED9307B600FCFDCF088160
:107A400019812A813B810F5F1F4F2F4F3F4F0883C2
:107A500019832A833B83A817B90751F736952795D1
:107A600017950795088319832A833B83CBCFCE01D3
:107A7000825091408E159F0524F489910E94613CAB
:107A8000F6CFDF91CF911F910F91FF90EF90089566
:107A9000EF92FF921F93CF93DF9300D000D0CDB72A
:107AA000DEB719821A821B821C8210920001539841
:107AB0005B980E94313F589A14BE88E10FB6F89443
:107AC00080936000109260000FBE00000000000074
:107AD000000019B10E94EE3E811106C013FB22275F
:107AE00020F981E0282703C00E94183F21E0A895D3
:107AF00039E288E190E00FB6F894A8958093600091
:107B00000FBE3093600010E0222309F4D5C00E941C
:107B1000533CA895813611F489E5C7C0813429F416
:107B20000E94713CA0E0B0E008C0883461F40E947B
:107B3000533CA82F0E94713CBB2789839A83AB8357
:107B4000BC838DE0B2C0853661F4111105C08FE3AE
:107B50000E94613C10E069C00E94753E0E94C83ED0
:107B6000F0CF823641F489E50E94613C80E00E94BA
:107B7000613C80E89AC0823479F4112341F30E9479
:107B8000713C7C010E94533CAE014F5F5F4F682FF8
:107B9000C7010E94793C89C0873669F40E94713C14
:107BA0007C010E94533CAE014F5F5F4F682FC701BD
:107BB0000E94E53C7CC0843489F4112341F20E9488
:107BC000533C682F89819A810E94813F89819A81E3
:107BD000AB81BC810196A11DB11DAFCF843691F45C
:107BE00089819A810E945D3F0E94613C89819A81CE
:107BF000AB81BC810196A11DB11D89839A83AB83A2
:107C0000BC8355C0803529F48DE00E94613C11E0B1
:107C10004EC08C3429F48DE00E94613C10E047C0D6
:107C2000853429F48DE00E94613C20E041C080371A
:107C300011F483E53AC0843729F48BE70E94613C54
:107C400080E033C098E8980F923010F0843519F432
:107C50000E94533C76CF8335A1F488E50E94613CB5
:107C600082E40E94613C8FE60E94613C8FE60E94A4
:107C7000613C84E70E94613C8BE20E94613C8BE2A4
:107C800014C0863529F481E30E94613C88E30DC06D
:107C9000833741F48FE00E94613C85E90E94613C9A
:107CA0008EE103C08B3119F08FE30E94613C21E02B
:107CB00007B600FCFDCF28CF0E94413F589888E1CD
:107CC0000FB6F89480936000109260000FBE0C9481
:107CD000000080E090E00F900F900F900F90DF91E8
:107CE000CF911F91FF90EF900895E0E0F0E083E0E6
:107CF00080935700E89507B600FCFDCFE058FF4F92
:107D0000E11598E7F907A1F781E180935700E8951D
:107D100008950F931F93CF93DF93F999FECF21110D
:107D200005C020E030E0EB0111E009C023E0FB01D9
:107D300020935700E89507B600FCFDCFF2CFDA019B
:107D4000A20FB31F0C91F901E60FF71F1196AC912A
:107D5000B0E0BA2FAA27A00FB11D0D011093570054
:107D6000E89511242E5F3F4F2038310541F785E01B
:107D7000FE0180935700E89507B600FCFDCF81E136
:107D800080935700E895DF91CF911F910F9108954F
:107D9000CF93DF93E3E0F0E089E080935700E49134
:107DA000E3FF0BC0C0E0D0E06FEFCE010E94653F63
:107DB0002196CF3F83E0D807B9F7DF91CF9108959F
:107DC000F999FECF07B600FCFDCF92BD81BD81E0E1
:107DD0008FBB60BD84E28FBBF99A08951F93CF9348
:107DE000DF9310928301C8EFD3E01C2F185FCE0100
:107DF0000E945D3F80938201882321F010938401CB
:107E0000982F06C02196CC3F83E0D80771F790E009
:107E10008091830121E0280F90FF03C09695822F67
:107E2000F9CF809383018170DF91CF911F910895E5
:107E30008091830180FF14C0815061E070E001C037
:107E4000660F8A95EAF760958091820168236093B6
:107E500082018091840190E088509C4F0C94E03E18
:107E6000089583E390E09093C5008093C40082E07E
:107E70008093C00088E18093C10086E08093C200B7
:107E800008951092C0001092C10086E08093C20055
:107E90001092C5001092C4000895DC01CB01FC01D2
:107EA000F999FECF06C0F2BDE1BDF89A319600B453
:107EB0000D9241505040B8F70895F999FECF92BD08
:107EC00081BDF89A992780B50895262FF999FECF9C
:107ED00092BD81BDF89A019700B4021639F01FBA1D
:107EE00020BD0FB6F894FA9AF99A0FBE0895DC01F6
:107EF000CB0103C02D910E94823F41505040D0F7EA
:107F00000895262FF999FECF1FBA92BD81BD20BDDD
:107F10000FB6F894FA9AF99A0FBE01960895F8945C
:027F2000FFCF91
:027F220001005C
:040000030000780081
:00000001FF
